{
  "_format": "hh-sol-artifact-1",
  "contractName": "LARCollection",
  "sourceName": "contracts/LARCollection.sol",
  "abi": [
    {
      "inputs": [
        {
          "internalType": "string",
          "name": "_name",
          "type": "string"
        },
        {
          "internalType": "string",
          "name": "_symbol",
          "type": "string"
        },
        {
          "internalType": "string",
          "name": "_initBaseURI",
          "type": "string"
        }
      ],
      "stateMutability": "nonpayable",
      "type": "constructor"
    },
    {
      "anonymous": false,
      "inputs": [
        {
          "indexed": true,
          "internalType": "address",
          "name": "owner",
          "type": "address"
        },
        {
          "indexed": true,
          "internalType": "address",
          "name": "approved",
          "type": "address"
        },
        {
          "indexed": true,
          "internalType": "uint256",
          "name": "tokenId",
          "type": "uint256"
        }
      ],
      "name": "Approval",
      "type": "event"
    },
    {
      "anonymous": false,
      "inputs": [
        {
          "indexed": true,
          "internalType": "address",
          "name": "owner",
          "type": "address"
        },
        {
          "indexed": true,
          "internalType": "address",
          "name": "operator",
          "type": "address"
        },
        {
          "indexed": false,
          "internalType": "bool",
          "name": "approved",
          "type": "bool"
        }
      ],
      "name": "ApprovalForAll",
      "type": "event"
    },
    {
      "anonymous": false,
      "inputs": [
        {
          "indexed": true,
          "internalType": "address",
          "name": "previousOwner",
          "type": "address"
        },
        {
          "indexed": true,
          "internalType": "address",
          "name": "newOwner",
          "type": "address"
        }
      ],
      "name": "OwnershipTransferred",
      "type": "event"
    },
    {
      "anonymous": false,
      "inputs": [
        {
          "indexed": true,
          "internalType": "address",
          "name": "from",
          "type": "address"
        },
        {
          "indexed": true,
          "internalType": "address",
          "name": "to",
          "type": "address"
        },
        {
          "indexed": true,
          "internalType": "uint256",
          "name": "tokenId",
          "type": "uint256"
        }
      ],
      "name": "Transfer",
      "type": "event"
    },
    {
      "inputs": [
        {
          "internalType": "address",
          "name": "to",
          "type": "address"
        },
        {
          "internalType": "uint256",
          "name": "tokenId",
          "type": "uint256"
        }
      ],
      "name": "approve",
      "outputs": [],
      "stateMutability": "nonpayable",
      "type": "function"
    },
    {
      "inputs": [
        {
          "internalType": "address",
          "name": "owner",
          "type": "address"
        }
      ],
      "name": "balanceOf",
      "outputs": [
        {
          "internalType": "uint256",
          "name": "",
          "type": "uint256"
        }
      ],
      "stateMutability": "view",
      "type": "function"
    },
    {
      "inputs": [],
      "name": "baseExtension",
      "outputs": [
        {
          "internalType": "string",
          "name": "",
          "type": "string"
        }
      ],
      "stateMutability": "view",
      "type": "function"
    },
    {
      "inputs": [],
      "name": "baseURI",
      "outputs": [
        {
          "internalType": "string",
          "name": "",
          "type": "string"
        }
      ],
      "stateMutability": "view",
      "type": "function"
    },
    {
      "inputs": [],
      "name": "cost",
      "outputs": [
        {
          "internalType": "uint256",
          "name": "",
          "type": "uint256"
        }
      ],
      "stateMutability": "view",
      "type": "function"
    },
    {
      "inputs": [
        {
          "internalType": "uint256",
          "name": "tokenId",
          "type": "uint256"
        }
      ],
      "name": "getApproved",
      "outputs": [
        {
          "internalType": "address",
          "name": "",
          "type": "address"
        }
      ],
      "stateMutability": "view",
      "type": "function"
    },
    {
      "inputs": [
        {
          "internalType": "address",
          "name": "owner",
          "type": "address"
        },
        {
          "internalType": "address",
          "name": "operator",
          "type": "address"
        }
      ],
      "name": "isApprovedForAll",
      "outputs": [
        {
          "internalType": "bool",
          "name": "",
          "type": "bool"
        }
      ],
      "stateMutability": "view",
      "type": "function"
    },
    {
      "inputs": [],
      "name": "maxMintAmount",
      "outputs": [
        {
          "internalType": "uint256",
          "name": "",
          "type": "uint256"
        }
      ],
      "stateMutability": "view",
      "type": "function"
    },
    {
      "inputs": [],
      "name": "maxPerWallet",
      "outputs": [
        {
          "internalType": "uint256",
          "name": "",
          "type": "uint256"
        }
      ],
      "stateMutability": "view",
      "type": "function"
    },
    {
      "inputs": [],
      "name": "maxSupply",
      "outputs": [
        {
          "internalType": "uint256",
          "name": "",
          "type": "uint256"
        }
      ],
      "stateMutability": "view",
      "type": "function"
    },
    {
      "inputs": [
        {
          "internalType": "address",
          "name": "_to",
          "type": "address"
        },
        {
          "internalType": "uint256",
          "name": "_mintAmount",
          "type": "uint256"
        }
      ],
      "name": "mint",
      "outputs": [],
      "stateMutability": "payable",
      "type": "function"
    },
    {
      "inputs": [],
      "name": "name",
      "outputs": [
        {
          "internalType": "string",
          "name": "",
          "type": "string"
        }
      ],
      "stateMutability": "view",
      "type": "function"
    },
    {
      "inputs": [],
      "name": "owner",
      "outputs": [
        {
          "internalType": "address",
          "name": "",
          "type": "address"
        }
      ],
      "stateMutability": "view",
      "type": "function"
    },
    {
      "inputs": [
        {
          "internalType": "uint256",
          "name": "tokenId",
          "type": "uint256"
        }
      ],
      "name": "ownerOf",
      "outputs": [
        {
          "internalType": "address",
          "name": "",
          "type": "address"
        }
      ],
      "stateMutability": "view",
      "type": "function"
    },
    {
      "inputs": [
        {
          "internalType": "bool",
          "name": "_state",
          "type": "bool"
        }
      ],
      "name": "pause",
      "outputs": [],
      "stateMutability": "nonpayable",
      "type": "function"
    },
    {
      "inputs": [],
      "name": "paused",
      "outputs": [
        {
          "internalType": "bool",
          "name": "",
          "type": "bool"
        }
      ],
      "stateMutability": "view",
      "type": "function"
    },
    {
      "inputs": [
        {
          "internalType": "address",
          "name": "_user",
          "type": "address"
        }
      ],
      "name": "removeWhitelistUser",
      "outputs": [],
      "stateMutability": "nonpayable",
      "type": "function"
    },
    {
      "inputs": [],
      "name": "renounceOwnership",
      "outputs": [],
      "stateMutability": "nonpayable",
      "type": "function"
    },
    {
      "inputs": [
        {
          "internalType": "address",
          "name": "from",
          "type": "address"
        },
        {
          "internalType": "address",
          "name": "to",
          "type": "address"
        },
        {
          "internalType": "uint256",
          "name": "tokenId",
          "type": "uint256"
        }
      ],
      "name": "safeTransferFrom",
      "outputs": [],
      "stateMutability": "nonpayable",
      "type": "function"
    },
    {
      "inputs": [
        {
          "internalType": "address",
          "name": "from",
          "type": "address"
        },
        {
          "internalType": "address",
          "name": "to",
          "type": "address"
        },
        {
          "internalType": "uint256",
          "name": "tokenId",
          "type": "uint256"
        },
        {
          "internalType": "bytes",
          "name": "_data",
          "type": "bytes"
        }
      ],
      "name": "safeTransferFrom",
      "outputs": [],
      "stateMutability": "nonpayable",
      "type": "function"
    },
    {
      "inputs": [
        {
          "internalType": "address",
          "name": "operator",
          "type": "address"
        },
        {
          "internalType": "bool",
          "name": "approved",
          "type": "bool"
        }
      ],
      "name": "setApprovalForAll",
      "outputs": [],
      "stateMutability": "nonpayable",
      "type": "function"
    },
    {
      "inputs": [
        {
          "internalType": "string",
          "name": "_newBaseExtension",
          "type": "string"
        }
      ],
      "name": "setBaseExtension",
      "outputs": [],
      "stateMutability": "nonpayable",
      "type": "function"
    },
    {
      "inputs": [
        {
          "internalType": "string",
          "name": "_newBaseURI",
          "type": "string"
        }
      ],
      "name": "setBaseURI",
      "outputs": [],
      "stateMutability": "nonpayable",
      "type": "function"
    },
    {
      "inputs": [
        {
          "internalType": "uint256",
          "name": "_newCost",
          "type": "uint256"
        }
      ],
      "name": "setCost",
      "outputs": [],
      "stateMutability": "nonpayable",
      "type": "function"
    },
    {
      "inputs": [
        {
          "internalType": "uint256",
          "name": "_newmaxMintAmount",
          "type": "uint256"
        }
      ],
      "name": "setmaxMintAmount",
      "outputs": [],
      "stateMutability": "nonpayable",
      "type": "function"
    },
    {
      "inputs": [
        {
          "internalType": "bytes4",
          "name": "interfaceId",
          "type": "bytes4"
        }
      ],
      "name": "supportsInterface",
      "outputs": [
        {
          "internalType": "bool",
          "name": "",
          "type": "bool"
        }
      ],
      "stateMutability": "view",
      "type": "function"
    },
    {
      "inputs": [],
      "name": "symbol",
      "outputs": [
        {
          "internalType": "string",
          "name": "",
          "type": "string"
        }
      ],
      "stateMutability": "view",
      "type": "function"
    },
    {
      "inputs": [
        {
          "internalType": "uint256",
          "name": "index",
          "type": "uint256"
        }
      ],
      "name": "tokenByIndex",
      "outputs": [
        {
          "internalType": "uint256",
          "name": "",
          "type": "uint256"
        }
      ],
      "stateMutability": "view",
      "type": "function"
    },
    {
      "inputs": [
        {
          "internalType": "address",
          "name": "owner",
          "type": "address"
        },
        {
          "internalType": "uint256",
          "name": "index",
          "type": "uint256"
        }
      ],
      "name": "tokenOfOwnerByIndex",
      "outputs": [
        {
          "internalType": "uint256",
          "name": "",
          "type": "uint256"
        }
      ],
      "stateMutability": "view",
      "type": "function"
    },
    {
      "inputs": [
        {
          "internalType": "uint256",
          "name": "tokenId",
          "type": "uint256"
        }
      ],
      "name": "tokenURI",
      "outputs": [
        {
          "internalType": "string",
          "name": "",
          "type": "string"
        }
      ],
      "stateMutability": "view",
      "type": "function"
    },
    {
      "inputs": [],
      "name": "totalSupply",
      "outputs": [
        {
          "internalType": "uint256",
          "name": "",
          "type": "uint256"
        }
      ],
      "stateMutability": "view",
      "type": "function"
    },
    {
      "inputs": [
        {
          "internalType": "address",
          "name": "from",
          "type": "address"
        },
        {
          "internalType": "address",
          "name": "to",
          "type": "address"
        },
        {
          "internalType": "uint256",
          "name": "tokenId",
          "type": "uint256"
        }
      ],
      "name": "transferFrom",
      "outputs": [],
      "stateMutability": "nonpayable",
      "type": "function"
    },
    {
      "inputs": [
        {
          "internalType": "address",
          "name": "newOwner",
          "type": "address"
        }
      ],
      "name": "transferOwnership",
      "outputs": [],
      "stateMutability": "nonpayable",
      "type": "function"
    },
    {
      "inputs": [
        {
          "internalType": "address",
          "name": "_owner",
          "type": "address"
        }
      ],
      "name": "walletOfOwner",
      "outputs": [
        {
          "internalType": "uint256[]",
          "name": "",
          "type": "uint256[]"
        }
      ],
      "stateMutability": "view",
      "type": "function"
    },
    {
      "inputs": [
        {
          "internalType": "address",
          "name": "_user",
          "type": "address"
        }
      ],
      "name": "whitelistUser",
      "outputs": [],
      "stateMutability": "nonpayable",
      "type": "function"
    },
    {
      "inputs": [
        {
          "internalType": "address",
          "name": "",
          "type": "address"
        }
      ],
      "name": "whitelisted",
      "outputs": [
        {
          "internalType": "bool",
          "name": "",
          "type": "bool"
        }
      ],
      "stateMutability": "view",
      "type": "function"
    },
    {
      "inputs": [],
      "name": "withdraw",
      "outputs": [],
      "stateMutability": "payable",
      "type": "function"
    }
  ],
  "bytecode": "0x60806040526040518060400160405280600581526020017f2e6a736f6e000000000000000000000000000000000000000000000000000000815250600c908051906020019062000051929190620002cd565b506658d15e17628000600d556014600e556005600f5560056010556000601160006101000a81548160ff0219169083151502179055503480156200009457600080fd5b5060405162004bd438038062004bd48339818101604052810190620000ba9190620003ef565b82828160009080519060200190620000d4929190620002cd565b508060019080519060200190620000ed929190620002cd565b50505062000110620001046200012a60201b60201c565b6200013260201b60201c565b6200012181620001f860201b60201c565b50505062000683565b600033905090565b6000600a60009054906101000a900473ffffffffffffffffffffffffffffffffffffffff16905081600a60006101000a81548173ffffffffffffffffffffffffffffffffffffffff021916908373ffffffffffffffffffffffffffffffffffffffff1602179055508173ffffffffffffffffffffffffffffffffffffffff168173ffffffffffffffffffffffffffffffffffffffff167f8be0079c531659141344cd1fd0a4f28419497f9722a3daafe3b4186f6b6457e060405160405180910390a35050565b620002086200012a60201b60201c565b73ffffffffffffffffffffffffffffffffffffffff166200022e620002a360201b60201c565b73ffffffffffffffffffffffffffffffffffffffff161462000287576040517f08c379a00000000000000000000000000000000000000000000000000000000081526004016200027e90620004b7565b60405180910390fd5b80600b90805190602001906200029f929190620002cd565b5050565b6000600a60009054906101000a900473ffffffffffffffffffffffffffffffffffffffff16905090565b828054620002db906200057f565b90600052602060002090601f016020900481019282620002ff57600085556200034b565b82601f106200031a57805160ff19168380011785556200034b565b828001600101855582156200034b579182015b828111156200034a5782518255916020019190600101906200032d565b5b5090506200035a91906200035e565b5090565b5b80821115620003795760008160009055506001016200035f565b5090565b6000620003946200038e8462000502565b620004d9565b905082815260208101848484011115620003ad57600080fd5b620003ba84828562000549565b509392505050565b600082601f830112620003d457600080fd5b8151620003e68482602086016200037d565b91505092915050565b6000806000606084860312156200040557600080fd5b600084015167ffffffffffffffff8111156200042057600080fd5b6200042e86828701620003c2565b935050602084015167ffffffffffffffff8111156200044c57600080fd5b6200045a86828701620003c2565b925050604084015167ffffffffffffffff8111156200047857600080fd5b6200048686828701620003c2565b9150509250925092565b60006200049f60208362000538565b9150620004ac826200065a565b602082019050919050565b60006020820190508181036000830152620004d28162000490565b9050919050565b6000620004e5620004f8565b9050620004f38282620005b5565b919050565b6000604051905090565b600067ffffffffffffffff82111562000520576200051f6200061a565b5b6200052b8262000649565b9050602081019050919050565b600082825260208201905092915050565b60005b83811015620005695780820151818401526020810190506200054c565b8381111562000579576000848401525b50505050565b600060028204905060018216806200059857607f821691505b60208210811415620005af57620005ae620005eb565b5b50919050565b620005c08262000649565b810181811067ffffffffffffffff82111715620005e257620005e16200061a565b5b80604052505050565b7f4e487b7100000000000000000000000000000000000000000000000000000000600052602260045260246000fd5b7f4e487b7100000000000000000000000000000000000000000000000000000000600052604160045260246000fd5b6000601f19601f8301169050919050565b7f4f776e61626c653a2063616c6c6572206973206e6f7420746865206f776e6572600082015250565b61454180620006936000396000f3fe60806040526004361061021a5760003560e01c80634f6ccce71161012357806395d89b41116100ab578063d5abeb011161006f578063d5abeb01146107b5578063d936547e146107e0578063da3ef23f1461081d578063e985e9c514610846578063f2fde38b146108835761021a565b806395d89b41146106d0578063a22cb465146106fb578063b88d4fde14610724578063c66828621461074d578063c87b56dd146107785761021a565b80636c0360eb116100f25780636c0360eb146105fd57806370a0823114610628578063715018a6146106655780637f00c7a61461067c5780638da5cb5b146106a55761021a565b80634f6ccce71461052f57806355f804b31461056c5780635c975abb146105955780636352211e146105c05761021a565b80632f745c59116101a657806342842e0e1161017557806342842e0e1461044c578063438b63001461047557806344a0d68a146104b2578063453c2310146104db5780634a4c560d146105065761021a565b80632f745c59146103c057806330cc7ae0146103fd5780633ccfd60b1461042657806340c10f19146104305761021a565b8063095ea7b3116101ed578063095ea7b3146102ed57806313faede61461031657806318160ddd14610341578063239c70ae1461036c57806323b872dd146103975761021a565b806301ffc9a71461021f57806302329a291461025c57806306fdde0314610285578063081812fc146102b0575b600080fd5b34801561022b57600080fd5b506102466004803603810190610241919061328e565b6108ac565b6040516102539190613886565b60405180910390f35b34801561026857600080fd5b50610283600480360381019061027e9190613265565b610926565b005b34801561029157600080fd5b5061029a6109bf565b6040516102a791906138a1565b60405180910390f35b3480156102bc57600080fd5b506102d760048036038101906102d29190613321565b610a51565b6040516102e491906137fd565b60405180910390f35b3480156102f957600080fd5b50610314600480360381019061030f9190613229565b610ad6565b005b34801561032257600080fd5b5061032b610bee565b6040516103389190613b03565b60405180910390f35b34801561034d57600080fd5b50610356610bf4565b6040516103639190613b03565b60405180910390f35b34801561037857600080fd5b50610381610c01565b60405161038e9190613b03565b60405180910390f35b3480156103a357600080fd5b506103be60048036038101906103b99190613123565b610c07565b005b3480156103cc57600080fd5b506103e760048036038101906103e29190613229565b610c67565b6040516103f49190613b03565b60405180910390f35b34801561040957600080fd5b50610424600480360381019061041f91906130be565b610d0c565b005b61042e610de3565b005b61044a60048036038101906104459190613229565b610edf565b005b34801561045857600080fd5b50610473600480360381019061046e9190613123565b61103c565b005b34801561048157600080fd5b5061049c600480360381019061049791906130be565b61105c565b6040516104a99190613864565b60405180910390f35b3480156104be57600080fd5b506104d960048036038101906104d49190613321565b611156565b005b3480156104e757600080fd5b506104f06111dc565b6040516104fd9190613b03565b60405180910390f35b34801561051257600080fd5b5061052d600480360381019061052891906130be565b6111e2565b005b34801561053b57600080fd5b5061055660048036038101906105519190613321565b6112b9565b6040516105639190613b03565b60405180910390f35b34801561057857600080fd5b50610593600480360381019061058e91906132e0565b611350565b005b3480156105a157600080fd5b506105aa6113e6565b6040516105b79190613886565b60405180910390f35b3480156105cc57600080fd5b506105e760048036038101906105e29190613321565b6113f9565b6040516105f491906137fd565b60405180910390f35b34801561060957600080fd5b506106126114ab565b60405161061f91906138a1565b60405180910390f35b34801561063457600080fd5b5061064f600480360381019061064a91906130be565b611539565b60405161065c9190613b03565b60405180910390f35b34801561067157600080fd5b5061067a6115f1565b005b34801561068857600080fd5b506106a3600480360381019061069e9190613321565b611679565b005b3480156106b157600080fd5b506106ba6116ff565b6040516106c791906137fd565b60405180910390f35b3480156106dc57600080fd5b506106e5611729565b6040516106f291906138a1565b60405180910390f35b34801561070757600080fd5b50610722600480360381019061071d91906131ed565b6117bb565b005b34801561073057600080fd5b5061074b60048036038101906107469190613172565b6117d1565b005b34801561075957600080fd5b50610762611833565b60405161076f91906138a1565b60405180910390f35b34801561078457600080fd5b5061079f600480360381019061079a9190613321565b6118c1565b6040516107ac91906138a1565b60405180910390f35b3480156107c157600080fd5b506107ca61196b565b6040516107d79190613b03565b60405180910390f35b3480156107ec57600080fd5b50610807600480360381019061080291906130be565b611971565b6040516108149190613886565b60405180910390f35b34801561082957600080fd5b50610844600480360381019061083f91906132e0565b611991565b005b34801561085257600080fd5b5061086d600480360381019061086891906130e7565b611a27565b60405161087a9190613886565b60405180910390f35b34801561088f57600080fd5b506108aa60048036038101906108a591906130be565b611abb565b005b60007f780e9d63000000000000000000000000000000000000000000000000000000007bffffffffffffffffffffffffffffffffffffffffffffffffffffffff1916827bffffffffffffffffffffffffffffffffffffffffffffffffffffffff1916148061091f575061091e82611bb3565b5b9050919050565b61092e611c95565b73ffffffffffffffffffffffffffffffffffffffff1661094c6116ff565b73ffffffffffffffffffffffffffffffffffffffff16146109a2576040517f08c379a000000000000000000000000000000000000000000000000000000000815260040161099990613a63565b60405180910390fd5b80601160006101000a81548160ff02191690831515021790555050565b6060600080546109ce90613e0c565b80601f01602080910402602001604051908101604052809291908181526020018280546109fa90613e0c565b8015610a475780601f10610a1c57610100808354040283529160200191610a47565b820191906000526020600020905b815481529060010190602001808311610a2a57829003601f168201915b5050505050905090565b6000610a5c82611c9d565b610a9b576040517f08c379a0000000000000000000000000000000000000000000000000000000008152600401610a9290613a43565b60405180910390fd5b6004600083815260200190815260200160002060009054906101000a900473ffffffffffffffffffffffffffffffffffffffff169050919050565b6000610ae1826113f9565b90508073ffffffffffffffffffffffffffffffffffffffff168373ffffffffffffffffffffffffffffffffffffffff161415610b52576040517f08c379a0000000000000000000000000000000000000000000000000000000008152600401610b4990613aa3565b60405180910390fd5b8073ffffffffffffffffffffffffffffffffffffffff16610b71611c95565b73ffffffffffffffffffffffffffffffffffffffff161480610ba05750610b9f81610b9a611c95565b611a27565b5b610bdf576040517f08c379a0000000000000000000000000000000000000000000000000000000008152600401610bd6906139c3565b60405180910390fd5b610be98383611d09565b505050565b600d5481565b6000600880549050905090565b600f5481565b610c18610c12611c95565b82611dc2565b610c57576040517f08c379a0000000000000000000000000000000000000000000000000000000008152600401610c4e90613ac3565b60405180910390fd5b610c62838383611ea0565b505050565b6000610c7283611539565b8210610cb3576040517f08c379a0000000000000000000000000000000000000000000000000000000008152600401610caa906138c3565b60405180910390fd5b600660008473ffffffffffffffffffffffffffffffffffffffff1673ffffffffffffffffffffffffffffffffffffffff168152602001908152602001600020600083815260200190815260200160002054905092915050565b610d14611c95565b73ffffffffffffffffffffffffffffffffffffffff16610d326116ff565b73ffffffffffffffffffffffffffffffffffffffff1614610d88576040517f08c379a0000000000000000000000000000000000000000000000000000000008152600401610d7f90613a63565b60405180910390fd5b6000601260008373ffffffffffffffffffffffffffffffffffffffff1673ffffffffffffffffffffffffffffffffffffffff16815260200190815260200160002060006101000a81548160ff02191690831515021790555050565b610deb611c95565b73ffffffffffffffffffffffffffffffffffffffff16610e096116ff565b73ffffffffffffffffffffffffffffffffffffffff1614610e5f576040517f08c379a0000000000000000000000000000000000000000000000000000000008152600401610e5690613a63565b60405180910390fd5b6000610e696116ff565b73ffffffffffffffffffffffffffffffffffffffff1647604051610e8c906137e8565b60006040518083038185875af1925050503d8060008114610ec9576040519150601f19603f3d011682016040523d82523d6000602084013e610ece565b606091505b5050905080610edc57600080fd5b50565b6000610ee9610bf4565b9050601160009054906101000a900460ff1615610f0557600080fd5b60008211610f1257600080fd5b600f54821115610f2157600080fd5b600e548282610f309190613c41565b1115610f3b57600080fd5b601054610f4733611539565b1115610f5257600080fd5b610f5a6116ff565b73ffffffffffffffffffffffffffffffffffffffff163373ffffffffffffffffffffffffffffffffffffffff16146110005760011515601260003373ffffffffffffffffffffffffffffffffffffffff1673ffffffffffffffffffffffffffffffffffffffff16815260200190815260200160002060009054906101000a900460ff16151514610fff5781600d54610ff29190613cc8565b341015610ffe57600080fd5b5b5b6000600190505b8281116110365761102384828461101e9190613c41565b612107565b808061102e90613e6f565b915050611007565b50505050565b611057838383604051806020016040528060008152506117d1565b505050565b6060600061106983611539565b905060008167ffffffffffffffff8111156110ad577f4e487b7100000000000000000000000000000000000000000000000000000000600052604160045260246000fd5b6040519080825280602002602001820160405280156110db5781602001602082028036833780820191505090505b50905060005b8281101561114b576110f38582610c67565b82828151811061112c577f4e487b7100000000000000000000000000000000000000000000000000000000600052603260045260246000fd5b602002602001018181525050808061114390613e6f565b9150506110e1565b508092505050919050565b61115e611c95565b73ffffffffffffffffffffffffffffffffffffffff1661117c6116ff565b73ffffffffffffffffffffffffffffffffffffffff16146111d2576040517f08c379a00000000000000000000000000000000000000000000000000000000081526004016111c990613a63565b60405180910390fd5b80600d8190555050565b60105481565b6111ea611c95565b73ffffffffffffffffffffffffffffffffffffffff166112086116ff565b73ffffffffffffffffffffffffffffffffffffffff161461125e576040517f08c379a000000000000000000000000000000000000000000000000000000000815260040161125590613a63565b60405180910390fd5b6001601260008373ffffffffffffffffffffffffffffffffffffffff1673ffffffffffffffffffffffffffffffffffffffff16815260200190815260200160002060006101000a81548160ff02191690831515021790555050565b60006112c3610bf4565b8210611304576040517f08c379a00000000000000000000000000000000000000000000000000000000081526004016112fb90613ae3565b60405180910390fd5b6008828154811061133e577f4e487b7100000000000000000000000000000000000000000000000000000000600052603260045260246000fd5b90600052602060002001549050919050565b611358611c95565b73ffffffffffffffffffffffffffffffffffffffff166113766116ff565b73ffffffffffffffffffffffffffffffffffffffff16146113cc576040517f08c379a00000000000000000000000000000000000000000000000000000000081526004016113c390613a63565b60405180910390fd5b80600b90805190602001906113e2929190612ee2565b5050565b601160009054906101000a900460ff1681565b6000806002600084815260200190815260200160002060009054906101000a900473ffffffffffffffffffffffffffffffffffffffff169050600073ffffffffffffffffffffffffffffffffffffffff168173ffffffffffffffffffffffffffffffffffffffff1614156114a2576040517f08c379a000000000000000000000000000000000000000000000000000000000815260040161149990613a03565b60405180910390fd5b80915050919050565b600b80546114b890613e0c565b80601f01602080910402602001604051908101604052809291908181526020018280546114e490613e0c565b80156115315780601f1061150657610100808354040283529160200191611531565b820191906000526020600020905b81548152906001019060200180831161151457829003601f168201915b505050505081565b60008073ffffffffffffffffffffffffffffffffffffffff168273ffffffffffffffffffffffffffffffffffffffff1614156115aa576040517f08c379a00000000000000000000000000000000000000000000000000000000081526004016115a1906139e3565b60405180910390fd5b600360008373ffffffffffffffffffffffffffffffffffffffff1673ffffffffffffffffffffffffffffffffffffffff168152602001908152602001600020549050919050565b6115f9611c95565b73ffffffffffffffffffffffffffffffffffffffff166116176116ff565b73ffffffffffffffffffffffffffffffffffffffff161461166d576040517f08c379a000000000000000000000000000000000000000000000000000000000815260040161166490613a63565b60405180910390fd5b6116776000612125565b565b611681611c95565b73ffffffffffffffffffffffffffffffffffffffff1661169f6116ff565b73ffffffffffffffffffffffffffffffffffffffff16146116f5576040517f08c379a00000000000000000000000000000000000000000000000000000000081526004016116ec90613a63565b60405180910390fd5b80600f8190555050565b6000600a60009054906101000a900473ffffffffffffffffffffffffffffffffffffffff16905090565b60606001805461173890613e0c565b80601f016020809104026020016040519081016040528092919081815260200182805461176490613e0c565b80156117b15780601f10611786576101008083540402835291602001916117b1565b820191906000526020600020905b81548152906001019060200180831161179457829003601f168201915b5050505050905090565b6117cd6117c6611c95565b83836121eb565b5050565b6117e26117dc611c95565b83611dc2565b611821576040517f08c379a000000000000000000000000000000000000000000000000000000000815260040161181890613ac3565b60405180910390fd5b61182d84848484612358565b50505050565b600c805461184090613e0c565b80601f016020809104026020016040519081016040528092919081815260200182805461186c90613e0c565b80156118b95780601f1061188e576101008083540402835291602001916118b9565b820191906000526020600020905b81548152906001019060200180831161189c57829003601f168201915b505050505081565b60606118cc82611c9d565b61190b576040517f08c379a000000000000000000000000000000000000000000000000000000000815260040161190290613a83565b60405180910390fd5b60006119156123b4565b905060008151116119355760405180602001604052806000815250611963565b8061193f84612446565b600c604051602001611953939291906137b7565b6040516020818303038152906040525b915050919050565b600e5481565b60126020528060005260406000206000915054906101000a900460ff1681565b611999611c95565b73ffffffffffffffffffffffffffffffffffffffff166119b76116ff565b73ffffffffffffffffffffffffffffffffffffffff1614611a0d576040517f08c379a0000000000000000000000000000000000000000000000000000000008152600401611a0490613a63565b60405180910390fd5b80600c9080519060200190611a23929190612ee2565b5050565b6000600560008473ffffffffffffffffffffffffffffffffffffffff1673ffffffffffffffffffffffffffffffffffffffff16815260200190815260200160002060008373ffffffffffffffffffffffffffffffffffffffff1673ffffffffffffffffffffffffffffffffffffffff16815260200190815260200160002060009054906101000a900460ff16905092915050565b611ac3611c95565b73ffffffffffffffffffffffffffffffffffffffff16611ae16116ff565b73ffffffffffffffffffffffffffffffffffffffff1614611b37576040517f08c379a0000000000000000000000000000000000000000000000000000000008152600401611b2e90613a63565b60405180910390fd5b600073ffffffffffffffffffffffffffffffffffffffff168173ffffffffffffffffffffffffffffffffffffffff161415611ba7576040517f08c379a0000000000000000000000000000000000000000000000000000000008152600401611b9e90613903565b60405180910390fd5b611bb081612125565b50565b60007f80ac58cd000000000000000000000000000000000000000000000000000000007bffffffffffffffffffffffffffffffffffffffffffffffffffffffff1916827bffffffffffffffffffffffffffffffffffffffffffffffffffffffff19161480611c7e57507f5b5e139f000000000000000000000000000000000000000000000000000000007bffffffffffffffffffffffffffffffffffffffffffffffffffffffff1916827bffffffffffffffffffffffffffffffffffffffffffffffffffffffff1916145b80611c8e5750611c8d826125f3565b5b9050919050565b600033905090565b60008073ffffffffffffffffffffffffffffffffffffffff166002600084815260200190815260200160002060009054906101000a900473ffffffffffffffffffffffffffffffffffffffff1673ffffffffffffffffffffffffffffffffffffffff1614159050919050565b816004600083815260200190815260200160002060006101000a81548173ffffffffffffffffffffffffffffffffffffffff021916908373ffffffffffffffffffffffffffffffffffffffff160217905550808273ffffffffffffffffffffffffffffffffffffffff16611d7c836113f9565b73ffffffffffffffffffffffffffffffffffffffff167f8c5be1e5ebec7d5bd14f71427d1e84f3dd0314c0f7b2291e5b200ac8c7c3b92560405160405180910390a45050565b6000611dcd82611c9d565b611e0c576040517f08c379a0000000000000000000000000000000000000000000000000000000008152600401611e03906139a3565b60405180910390fd5b6000611e17836113f9565b90508073ffffffffffffffffffffffffffffffffffffffff168473ffffffffffffffffffffffffffffffffffffffff161480611e595750611e588185611a27565b5b80611e9757508373ffffffffffffffffffffffffffffffffffffffff16611e7f84610a51565b73ffffffffffffffffffffffffffffffffffffffff16145b91505092915050565b8273ffffffffffffffffffffffffffffffffffffffff16611ec0826113f9565b73ffffffffffffffffffffffffffffffffffffffff1614611f16576040517f08c379a0000000000000000000000000000000000000000000000000000000008152600401611f0d90613923565b60405180910390fd5b600073ffffffffffffffffffffffffffffffffffffffff168273ffffffffffffffffffffffffffffffffffffffff161415611f86576040517f08c379a0000000000000000000000000000000000000000000000000000000008152600401611f7d90613963565b60405180910390fd5b611f9183838361265d565b611f9c600082611d09565b6001600360008573ffffffffffffffffffffffffffffffffffffffff1673ffffffffffffffffffffffffffffffffffffffff1681526020019081526020016000206000828254611fec9190613d22565b925050819055506001600360008473ffffffffffffffffffffffffffffffffffffffff1673ffffffffffffffffffffffffffffffffffffffff16815260200190815260200160002060008282546120439190613c41565b92505081905550816002600083815260200190815260200160002060006101000a81548173ffffffffffffffffffffffffffffffffffffffff021916908373ffffffffffffffffffffffffffffffffffffffff160217905550808273ffffffffffffffffffffffffffffffffffffffff168473ffffffffffffffffffffffffffffffffffffffff167fddf252ad1be2c89b69c2b068fc378daa952ba7f163c4a11628f55a4df523b3ef60405160405180910390a4612102838383612771565b505050565b612121828260405180602001604052806000815250612776565b5050565b6000600a60009054906101000a900473ffffffffffffffffffffffffffffffffffffffff16905081600a60006101000a81548173ffffffffffffffffffffffffffffffffffffffff021916908373ffffffffffffffffffffffffffffffffffffffff1602179055508173ffffffffffffffffffffffffffffffffffffffff168173ffffffffffffffffffffffffffffffffffffffff167f8be0079c531659141344cd1fd0a4f28419497f9722a3daafe3b4186f6b6457e060405160405180910390a35050565b8173ffffffffffffffffffffffffffffffffffffffff168373ffffffffffffffffffffffffffffffffffffffff16141561225a576040517f08c379a000000000000000000000000000000000000000000000000000000000815260040161225190613983565b60405180910390fd5b80600560008573ffffffffffffffffffffffffffffffffffffffff1673ffffffffffffffffffffffffffffffffffffffff16815260200190815260200160002060008473ffffffffffffffffffffffffffffffffffffffff1673ffffffffffffffffffffffffffffffffffffffff16815260200190815260200160002060006101000a81548160ff0219169083151502179055508173ffffffffffffffffffffffffffffffffffffffff168373ffffffffffffffffffffffffffffffffffffffff167f17307eab39ab6107e8899845ad3d59bd9653f200f220920489ca2b5937696c318360405161234b9190613886565b60405180910390a3505050565b612363848484611ea0565b61236f848484846127d1565b6123ae576040517f08c379a00000000000000000000000000000000000000000000000000000000081526004016123a5906138e3565b60405180910390fd5b50505050565b6060600b80546123c390613e0c565b80601f01602080910402602001604051908101604052809291908181526020018280546123ef90613e0c565b801561243c5780601f106124115761010080835404028352916020019161243c565b820191906000526020600020905b81548152906001019060200180831161241f57829003601f168201915b5050505050905090565b6060600082141561248e576040518060400160405280600181526020017f300000000000000000000000000000000000000000000000000000000000000081525090506125ee565b600082905060005b600082146124c05780806124a990613e6f565b915050600a826124b99190613c97565b9150612496565b60008167ffffffffffffffff811115612502577f4e487b7100000000000000000000000000000000000000000000000000000000600052604160045260246000fd5b6040519080825280601f01601f1916602001820160405280156125345781602001600182028036833780820191505090505b5090505b600085146125e75760018261254d9190613d22565b9150600a8561255c9190613eb8565b60306125689190613c41565b60f81b8183815181106125a4577f4e487b7100000000000000000000000000000000000000000000000000000000600052603260045260246000fd5b60200101907effffffffffffffffffffffffffffffffffffffffffffffffffffffffffffff1916908160001a905350600a856125e09190613c97565b9450612538565b8093505050505b919050565b60007f01ffc9a7000000000000000000000000000000000000000000000000000000007bffffffffffffffffffffffffffffffffffffffffffffffffffffffff1916827bffffffffffffffffffffffffffffffffffffffffffffffffffffffff1916149050919050565b612668838383612968565b600073ffffffffffffffffffffffffffffffffffffffff168373ffffffffffffffffffffffffffffffffffffffff1614156126ab576126a68161296d565b6126ea565b8173ffffffffffffffffffffffffffffffffffffffff168373ffffffffffffffffffffffffffffffffffffffff16146126e9576126e883826129b6565b5b5b600073ffffffffffffffffffffffffffffffffffffffff168273ffffffffffffffffffffffffffffffffffffffff16141561272d5761272881612b23565b61276c565b8273ffffffffffffffffffffffffffffffffffffffff168273ffffffffffffffffffffffffffffffffffffffff161461276b5761276a8282612c66565b5b5b505050565b505050565b6127808383612ce5565b61278d60008484846127d1565b6127cc576040517f08c379a00000000000000000000000000000000000000000000000000000000081526004016127c3906138e3565b60405180910390fd5b505050565b60006127f28473ffffffffffffffffffffffffffffffffffffffff16612ebf565b1561295b578373ffffffffffffffffffffffffffffffffffffffff1663150b7a0261281b611c95565b8786866040518563ffffffff1660e01b815260040161283d9493929190613818565b602060405180830381600087803b15801561285757600080fd5b505af192505050801561288857506040513d601f19601f8201168201806040525081019061288591906132b7565b60015b61290b573d80600081146128b8576040519150601f19603f3d011682016040523d82523d6000602084013e6128bd565b606091505b50600081511415612903576040517f08c379a00000000000000000000000000000000000000000000000000000000081526004016128fa906138e3565b60405180910390fd5b805181602001fd5b63150b7a0260e01b7bffffffffffffffffffffffffffffffffffffffffffffffffffffffff1916817bffffffffffffffffffffffffffffffffffffffffffffffffffffffff191614915050612960565b600190505b949350505050565b505050565b6008805490506009600083815260200190815260200160002081905550600881908060018154018082558091505060019003906000526020600020016000909190919091505550565b600060016129c384611539565b6129cd9190613d22565b9050600060076000848152602001908152602001600020549050818114612ab2576000600660008673ffffffffffffffffffffffffffffffffffffffff1673ffffffffffffffffffffffffffffffffffffffff168152602001908152602001600020600084815260200190815260200160002054905080600660008773ffffffffffffffffffffffffffffffffffffffff1673ffffffffffffffffffffffffffffffffffffffff168152602001908152602001600020600084815260200190815260200160002081905550816007600083815260200190815260200160002081905550505b6007600084815260200190815260200160002060009055600660008573ffffffffffffffffffffffffffffffffffffffff1673ffffffffffffffffffffffffffffffffffffffff16815260200190815260200160002060008381526020019081526020016000206000905550505050565b60006001600880549050612b379190613d22565b9050600060096000848152602001908152602001600020549050600060088381548110612b8d577f4e487b7100000000000000000000000000000000000000000000000000000000600052603260045260246000fd5b906000526020600020015490508060088381548110612bd5577f4e487b7100000000000000000000000000000000000000000000000000000000600052603260045260246000fd5b906000526020600020018190555081600960008381526020019081526020016000208190555060096000858152602001908152602001600020600090556008805480612c4a577f4e487b7100000000000000000000000000000000000000000000000000000000600052603160045260246000fd5b6001900381819060005260206000200160009055905550505050565b6000612c7183611539565b905081600660008573ffffffffffffffffffffffffffffffffffffffff1673ffffffffffffffffffffffffffffffffffffffff168152602001908152602001600020600083815260200190815260200160002081905550806007600084815260200190815260200160002081905550505050565b600073ffffffffffffffffffffffffffffffffffffffff168273ffffffffffffffffffffffffffffffffffffffff161415612d55576040517f08c379a0000000000000000000000000000000000000000000000000000000008152600401612d4c90613a23565b60405180910390fd5b612d5e81611c9d565b15612d9e576040517f08c379a0000000000000000000000000000000000000000000000000000000008152600401612d9590613943565b60405180910390fd5b612daa6000838361265d565b6001600360008473ffffffffffffffffffffffffffffffffffffffff1673ffffffffffffffffffffffffffffffffffffffff1681526020019081526020016000206000828254612dfa9190613c41565b92505081905550816002600083815260200190815260200160002060006101000a81548173ffffffffffffffffffffffffffffffffffffffff021916908373ffffffffffffffffffffffffffffffffffffffff160217905550808273ffffffffffffffffffffffffffffffffffffffff16600073ffffffffffffffffffffffffffffffffffffffff167fddf252ad1be2c89b69c2b068fc378daa952ba7f163c4a11628f55a4df523b3ef60405160405180910390a4612ebb60008383612771565b5050565b6000808273ffffffffffffffffffffffffffffffffffffffff163b119050919050565b828054612eee90613e0c565b90600052602060002090601f016020900481019282612f105760008555612f57565b82601f10612f2957805160ff1916838001178555612f57565b82800160010185558215612f57579182015b82811115612f56578251825591602001919060010190612f3b565b5b509050612f649190612f68565b5090565b5b80821115612f81576000816000905550600101612f69565b5090565b6000612f98612f9384613b43565b613b1e565b905082815260208101848484011115612fb057600080fd5b612fbb848285613dca565b509392505050565b6000612fd6612fd184613b74565b613b1e565b905082815260208101848484011115612fee57600080fd5b612ff9848285613dca565b509392505050565b600081359050613010816144af565b92915050565b600081359050613025816144c6565b92915050565b60008135905061303a816144dd565b92915050565b60008151905061304f816144dd565b92915050565b600082601f83011261306657600080fd5b8135613076848260208601612f85565b91505092915050565b600082601f83011261309057600080fd5b81356130a0848260208601612fc3565b91505092915050565b6000813590506130b8816144f4565b92915050565b6000602082840312156130d057600080fd5b60006130de84828501613001565b91505092915050565b600080604083850312156130fa57600080fd5b600061310885828601613001565b925050602061311985828601613001565b9150509250929050565b60008060006060848603121561313857600080fd5b600061314686828701613001565b935050602061315786828701613001565b9250506040613168868287016130a9565b9150509250925092565b6000806000806080858703121561318857600080fd5b600061319687828801613001565b94505060206131a787828801613001565b93505060406131b8878288016130a9565b925050606085013567ffffffffffffffff8111156131d557600080fd5b6131e187828801613055565b91505092959194509250565b6000806040838503121561320057600080fd5b600061320e85828601613001565b925050602061321f85828601613016565b9150509250929050565b6000806040838503121561323c57600080fd5b600061324a85828601613001565b925050602061325b858286016130a9565b9150509250929050565b60006020828403121561327757600080fd5b600061328584828501613016565b91505092915050565b6000602082840312156132a057600080fd5b60006132ae8482850161302b565b91505092915050565b6000602082840312156132c957600080fd5b60006132d784828501613040565b91505092915050565b6000602082840312156132f257600080fd5b600082013567ffffffffffffffff81111561330c57600080fd5b6133188482850161307f565b91505092915050565b60006020828403121561333357600080fd5b6000613341848285016130a9565b91505092915050565b60006133568383613799565b60208301905092915050565b61336b81613d56565b82525050565b600061337c82613bca565b6133868185613bf8565b935061339183613ba5565b8060005b838110156133c25781516133a9888261334a565b97506133b483613beb565b925050600181019050613395565b5085935050505092915050565b6133d881613d68565b82525050565b60006133e982613bd5565b6133f38185613c09565b9350613403818560208601613dd9565b61340c81613fa5565b840191505092915050565b600061342282613be0565b61342c8185613c25565b935061343c818560208601613dd9565b61344581613fa5565b840191505092915050565b600061345b82613be0565b6134658185613c36565b9350613475818560208601613dd9565b80840191505092915050565b6000815461348e81613e0c565b6134988186613c36565b945060018216600081146134b357600181146134c4576134f7565b60ff198316865281860193506134f7565b6134cd85613bb5565b60005b838110156134ef578154818901526001820191506020810190506134d0565b838801955050505b50505092915050565b600061350d602b83613c25565b915061351882613fb6565b604082019050919050565b6000613530603283613c25565b915061353b82614005565b604082019050919050565b6000613553602683613c25565b915061355e82614054565b604082019050919050565b6000613576602583613c25565b9150613581826140a3565b604082019050919050565b6000613599601c83613c25565b91506135a4826140f2565b602082019050919050565b60006135bc602483613c25565b91506135c78261411b565b604082019050919050565b60006135df601983613c25565b91506135ea8261416a565b602082019050919050565b6000613602602c83613c25565b915061360d82614193565b604082019050919050565b6000613625603883613c25565b9150613630826141e2565b604082019050919050565b6000613648602a83613c25565b915061365382614231565b604082019050919050565b600061366b602983613c25565b915061367682614280565b604082019050919050565b600061368e602083613c25565b9150613699826142cf565b602082019050919050565b60006136b1602c83613c25565b91506136bc826142f8565b604082019050919050565b60006136d4602083613c25565b91506136df82614347565b602082019050919050565b60006136f7602f83613c25565b915061370282614370565b604082019050919050565b600061371a602183613c25565b9150613725826143bf565b604082019050919050565b600061373d600083613c1a565b91506137488261440e565b600082019050919050565b6000613760603183613c25565b915061376b82614411565b604082019050919050565b6000613783602c83613c25565b915061378e82614460565b604082019050919050565b6137a281613dc0565b82525050565b6137b181613dc0565b82525050565b60006137c38286613450565b91506137cf8285613450565b91506137db8284613481565b9150819050949350505050565b60006137f382613730565b9150819050919050565b60006020820190506138126000830184613362565b92915050565b600060808201905061382d6000830187613362565b61383a6020830186613362565b61384760408301856137a8565b818103606083015261385981846133de565b905095945050505050565b6000602082019050818103600083015261387e8184613371565b905092915050565b600060208201905061389b60008301846133cf565b92915050565b600060208201905081810360008301526138bb8184613417565b905092915050565b600060208201905081810360008301526138dc81613500565b9050919050565b600060208201905081810360008301526138fc81613523565b9050919050565b6000602082019050818103600083015261391c81613546565b9050919050565b6000602082019050818103600083015261393c81613569565b9050919050565b6000602082019050818103600083015261395c8161358c565b9050919050565b6000602082019050818103600083015261397c816135af565b9050919050565b6000602082019050818103600083015261399c816135d2565b9050919050565b600060208201905081810360008301526139bc816135f5565b9050919050565b600060208201905081810360008301526139dc81613618565b9050919050565b600060208201905081810360008301526139fc8161363b565b9050919050565b60006020820190508181036000830152613a1c8161365e565b9050919050565b60006020820190508181036000830152613a3c81613681565b9050919050565b60006020820190508181036000830152613a5c816136a4565b9050919050565b60006020820190508181036000830152613a7c816136c7565b9050919050565b60006020820190508181036000830152613a9c816136ea565b9050919050565b60006020820190508181036000830152613abc8161370d565b9050919050565b60006020820190508181036000830152613adc81613753565b9050919050565b60006020820190508181036000830152613afc81613776565b9050919050565b6000602082019050613b1860008301846137a8565b92915050565b6000613b28613b39565b9050613b348282613e3e565b919050565b6000604051905090565b600067ffffffffffffffff821115613b5e57613b5d613f76565b5b613b6782613fa5565b9050602081019050919050565b600067ffffffffffffffff821115613b8f57613b8e613f76565b5b613b9882613fa5565b9050602081019050919050565b6000819050602082019050919050565b60008190508160005260206000209050919050565b600081519050919050565b600081519050919050565b600081519050919050565b6000602082019050919050565b600082825260208201905092915050565b600082825260208201905092915050565b600081905092915050565b600082825260208201905092915050565b600081905092915050565b6000613c4c82613dc0565b9150613c5783613dc0565b9250827fffffffffffffffffffffffffffffffffffffffffffffffffffffffffffffffff03821115613c8c57613c8b613ee9565b5b828201905092915050565b6000613ca282613dc0565b9150613cad83613dc0565b925082613cbd57613cbc613f18565b5b828204905092915050565b6000613cd382613dc0565b9150613cde83613dc0565b9250817fffffffffffffffffffffffffffffffffffffffffffffffffffffffffffffffff0483118215151615613d1757613d16613ee9565b5b828202905092915050565b6000613d2d82613dc0565b9150613d3883613dc0565b925082821015613d4b57613d4a613ee9565b5b828203905092915050565b6000613d6182613da0565b9050919050565b60008115159050919050565b60007fffffffff0000000000000000000000000000000000000000000000000000000082169050919050565b600073ffffffffffffffffffffffffffffffffffffffff82169050919050565b6000819050919050565b82818337600083830152505050565b60005b83811015613df7578082015181840152602081019050613ddc565b83811115613e06576000848401525b50505050565b60006002820490506001821680613e2457607f821691505b60208210811415613e3857613e37613f47565b5b50919050565b613e4782613fa5565b810181811067ffffffffffffffff82111715613e6657613e65613f76565b5b80604052505050565b6000613e7a82613dc0565b91507fffffffffffffffffffffffffffffffffffffffffffffffffffffffffffffffff821415613ead57613eac613ee9565b5b600182019050919050565b6000613ec382613dc0565b9150613ece83613dc0565b925082613ede57613edd613f18565b5b828206905092915050565b7f4e487b7100000000000000000000000000000000000000000000000000000000600052601160045260246000fd5b7f4e487b7100000000000000000000000000000000000000000000000000000000600052601260045260246000fd5b7f4e487b7100000000000000000000000000000000000000000000000000000000600052602260045260246000fd5b7f4e487b7100000000000000000000000000000000000000000000000000000000600052604160045260246000fd5b6000601f19601f8301169050919050565b7f455243373231456e756d657261626c653a206f776e657220696e646578206f7560008201527f74206f6620626f756e6473000000000000000000000000000000000000000000602082015250565b7f4552433732313a207472616e7366657220746f206e6f6e20455243373231526560008201527f63656976657220696d706c656d656e7465720000000000000000000000000000602082015250565b7f4f776e61626c653a206e6577206f776e657220697320746865207a65726f206160008201527f6464726573730000000000000000000000000000000000000000000000000000602082015250565b7f4552433732313a207472616e736665722066726f6d20696e636f72726563742060008201527f6f776e6572000000000000000000000000000000000000000000000000000000602082015250565b7f4552433732313a20746f6b656e20616c7265616479206d696e74656400000000600082015250565b7f4552433732313a207472616e7366657220746f20746865207a65726f2061646460008201527f7265737300000000000000000000000000000000000000000000000000000000602082015250565b7f4552433732313a20617070726f766520746f2063616c6c657200000000000000600082015250565b7f4552433732313a206f70657261746f7220717565727920666f72206e6f6e657860008201527f697374656e7420746f6b656e0000000000000000000000000000000000000000602082015250565b7f4552433732313a20617070726f76652063616c6c6572206973206e6f74206f7760008201527f6e6572206e6f7220617070726f76656420666f7220616c6c0000000000000000602082015250565b7f4552433732313a2062616c616e636520717565727920666f7220746865207a6560008201527f726f206164647265737300000000000000000000000000000000000000000000602082015250565b7f4552433732313a206f776e657220717565727920666f72206e6f6e657869737460008201527f656e7420746f6b656e0000000000000000000000000000000000000000000000602082015250565b7f4552433732313a206d696e7420746f20746865207a65726f2061646472657373600082015250565b7f4552433732313a20617070726f76656420717565727920666f72206e6f6e657860008201527f697374656e7420746f6b656e0000000000000000000000000000000000000000602082015250565b7f4f776e61626c653a2063616c6c6572206973206e6f7420746865206f776e6572600082015250565b7f4552433732314d657461646174613a2055524920717565727920666f72206e6f60008201527f6e6578697374656e7420746f6b656e0000000000000000000000000000000000602082015250565b7f4552433732313a20617070726f76616c20746f2063757272656e74206f776e6560008201527f7200000000000000000000000000000000000000000000000000000000000000602082015250565b50565b7f4552433732313a207472616e736665722063616c6c6572206973206e6f74206f60008201527f776e6572206e6f7220617070726f766564000000000000000000000000000000602082015250565b7f455243373231456e756d657261626c653a20676c6f62616c20696e646578206f60008201527f7574206f6620626f756e64730000000000000000000000000000000000000000602082015250565b6144b881613d56565b81146144c357600080fd5b50565b6144cf81613d68565b81146144da57600080fd5b50565b6144e681613d74565b81146144f157600080fd5b50565b6144fd81613dc0565b811461450857600080fd5b5056fea26469706673582212205de8c23b5340fa966724fdf2d298e592e31b33908213b3efbaecfc9f0825a9f264736f6c63430008040033",
  "linkReferences": {},
  "deployedLinkReferences": {}
}