{
  "_format": "hh-sol-artifact-1",
  "contractName": "LARCollection",
  "sourceName": "contracts/LARCollection.sol",
  "abi": [
    {
      "inputs": [
        {
          "internalType": "string",
          "name": "_name",
          "type": "string"
        },
        {
          "internalType": "string",
          "name": "_symbol",
          "type": "string"
        },
        {
          "internalType": "string",
          "name": "_initBaseURI",
          "type": "string"
        }
      ],
      "stateMutability": "nonpayable",
      "type": "constructor"
    },
    {
      "anonymous": false,
      "inputs": [
        {
          "indexed": true,
          "internalType": "address",
          "name": "owner",
          "type": "address"
        },
        {
          "indexed": true,
          "internalType": "address",
          "name": "approved",
          "type": "address"
        },
        {
          "indexed": true,
          "internalType": "uint256",
          "name": "tokenId",
          "type": "uint256"
        }
      ],
      "name": "Approval",
      "type": "event"
    },
    {
      "anonymous": false,
      "inputs": [
        {
          "indexed": true,
          "internalType": "address",
          "name": "owner",
          "type": "address"
        },
        {
          "indexed": true,
          "internalType": "address",
          "name": "operator",
          "type": "address"
        },
        {
          "indexed": false,
          "internalType": "bool",
          "name": "approved",
          "type": "bool"
        }
      ],
      "name": "ApprovalForAll",
      "type": "event"
    },
    {
      "anonymous": false,
      "inputs": [
        {
          "indexed": true,
          "internalType": "address",
          "name": "previousOwner",
          "type": "address"
        },
        {
          "indexed": true,
          "internalType": "address",
          "name": "newOwner",
          "type": "address"
        }
      ],
      "name": "OwnershipTransferred",
      "type": "event"
    },
    {
      "anonymous": false,
      "inputs": [
        {
          "indexed": true,
          "internalType": "address",
          "name": "from",
          "type": "address"
        },
        {
          "indexed": true,
          "internalType": "address",
          "name": "to",
          "type": "address"
        },
        {
          "indexed": true,
          "internalType": "uint256",
          "name": "tokenId",
          "type": "uint256"
        }
      ],
      "name": "Transfer",
      "type": "event"
    },
    {
      "inputs": [
        {
          "internalType": "address",
          "name": "to",
          "type": "address"
        },
        {
          "internalType": "uint256",
          "name": "tokenId",
          "type": "uint256"
        }
      ],
      "name": "approve",
      "outputs": [],
      "stateMutability": "nonpayable",
      "type": "function"
    },
    {
      "inputs": [
        {
          "internalType": "address",
          "name": "owner",
          "type": "address"
        }
      ],
      "name": "balanceOf",
      "outputs": [
        {
          "internalType": "uint256",
          "name": "",
          "type": "uint256"
        }
      ],
      "stateMutability": "view",
      "type": "function"
    },
    {
      "inputs": [],
      "name": "baseExtension",
      "outputs": [
        {
          "internalType": "string",
          "name": "",
          "type": "string"
        }
      ],
      "stateMutability": "view",
      "type": "function"
    },
    {
      "inputs": [],
      "name": "baseURI",
      "outputs": [
        {
          "internalType": "string",
          "name": "",
          "type": "string"
        }
      ],
      "stateMutability": "view",
      "type": "function"
    },
    {
      "inputs": [],
      "name": "cost",
      "outputs": [
        {
          "internalType": "uint256",
          "name": "",
          "type": "uint256"
        }
      ],
      "stateMutability": "view",
      "type": "function"
    },
    {
      "inputs": [
        {
          "internalType": "uint256",
          "name": "tokenId",
          "type": "uint256"
        }
      ],
      "name": "getApproved",
      "outputs": [
        {
          "internalType": "address",
          "name": "",
          "type": "address"
        }
      ],
      "stateMutability": "view",
      "type": "function"
    },
    {
      "inputs": [
        {
          "internalType": "address",
          "name": "owner",
          "type": "address"
        },
        {
          "internalType": "address",
          "name": "operator",
          "type": "address"
        }
      ],
      "name": "isApprovedForAll",
      "outputs": [
        {
          "internalType": "bool",
          "name": "",
          "type": "bool"
        }
      ],
      "stateMutability": "view",
      "type": "function"
    },
    {
      "inputs": [],
      "name": "maxMintAmount",
      "outputs": [
        {
          "internalType": "uint256",
          "name": "",
          "type": "uint256"
        }
      ],
      "stateMutability": "view",
      "type": "function"
    },
    {
      "inputs": [],
      "name": "maxSupply",
      "outputs": [
        {
          "internalType": "uint256",
          "name": "",
          "type": "uint256"
        }
      ],
      "stateMutability": "view",
      "type": "function"
    },
    {
      "inputs": [
        {
          "internalType": "address",
          "name": "_to",
          "type": "address"
        },
        {
          "internalType": "uint256",
          "name": "_mintAmount",
          "type": "uint256"
        }
      ],
      "name": "mint",
      "outputs": [],
      "stateMutability": "payable",
      "type": "function"
    },
    {
      "inputs": [],
      "name": "name",
      "outputs": [
        {
          "internalType": "string",
          "name": "",
          "type": "string"
        }
      ],
      "stateMutability": "view",
      "type": "function"
    },
    {
      "inputs": [],
      "name": "owner",
      "outputs": [
        {
          "internalType": "address",
          "name": "",
          "type": "address"
        }
      ],
      "stateMutability": "view",
      "type": "function"
    },
    {
      "inputs": [
        {
          "internalType": "uint256",
          "name": "tokenId",
          "type": "uint256"
        }
      ],
      "name": "ownerOf",
      "outputs": [
        {
          "internalType": "address",
          "name": "",
          "type": "address"
        }
      ],
      "stateMutability": "view",
      "type": "function"
    },
    {
      "inputs": [
        {
          "internalType": "bool",
          "name": "_state",
          "type": "bool"
        }
      ],
      "name": "pause",
      "outputs": [],
      "stateMutability": "nonpayable",
      "type": "function"
    },
    {
      "inputs": [],
      "name": "paused",
      "outputs": [
        {
          "internalType": "bool",
          "name": "",
          "type": "bool"
        }
      ],
      "stateMutability": "view",
      "type": "function"
    },
    {
      "inputs": [
        {
          "internalType": "address",
          "name": "_user",
          "type": "address"
        }
      ],
      "name": "removeWhitelistUser",
      "outputs": [],
      "stateMutability": "nonpayable",
      "type": "function"
    },
    {
      "inputs": [],
      "name": "renounceOwnership",
      "outputs": [],
      "stateMutability": "nonpayable",
      "type": "function"
    },
    {
      "inputs": [
        {
          "internalType": "address",
          "name": "from",
          "type": "address"
        },
        {
          "internalType": "address",
          "name": "to",
          "type": "address"
        },
        {
          "internalType": "uint256",
          "name": "tokenId",
          "type": "uint256"
        }
      ],
      "name": "safeTransferFrom",
      "outputs": [],
      "stateMutability": "nonpayable",
      "type": "function"
    },
    {
      "inputs": [
        {
          "internalType": "address",
          "name": "from",
          "type": "address"
        },
        {
          "internalType": "address",
          "name": "to",
          "type": "address"
        },
        {
          "internalType": "uint256",
          "name": "tokenId",
          "type": "uint256"
        },
        {
          "internalType": "bytes",
          "name": "_data",
          "type": "bytes"
        }
      ],
      "name": "safeTransferFrom",
      "outputs": [],
      "stateMutability": "nonpayable",
      "type": "function"
    },
    {
      "inputs": [
        {
          "internalType": "address",
          "name": "operator",
          "type": "address"
        },
        {
          "internalType": "bool",
          "name": "approved",
          "type": "bool"
        }
      ],
      "name": "setApprovalForAll",
      "outputs": [],
      "stateMutability": "nonpayable",
      "type": "function"
    },
    {
      "inputs": [
        {
          "internalType": "string",
          "name": "_newBaseExtension",
          "type": "string"
        }
      ],
      "name": "setBaseExtension",
      "outputs": [],
      "stateMutability": "nonpayable",
      "type": "function"
    },
    {
      "inputs": [
        {
          "internalType": "string",
          "name": "_newBaseURI",
          "type": "string"
        }
      ],
      "name": "setBaseURI",
      "outputs": [],
      "stateMutability": "nonpayable",
      "type": "function"
    },
    {
      "inputs": [
        {
          "internalType": "uint256",
          "name": "_newCost",
          "type": "uint256"
        }
      ],
      "name": "setCost",
      "outputs": [],
      "stateMutability": "nonpayable",
      "type": "function"
    },
    {
      "inputs": [
        {
          "internalType": "uint256",
          "name": "_newmaxMintAmount",
          "type": "uint256"
        }
      ],
      "name": "setmaxMintAmount",
      "outputs": [],
      "stateMutability": "nonpayable",
      "type": "function"
    },
    {
      "inputs": [
        {
          "internalType": "bytes4",
          "name": "interfaceId",
          "type": "bytes4"
        }
      ],
      "name": "supportsInterface",
      "outputs": [
        {
          "internalType": "bool",
          "name": "",
          "type": "bool"
        }
      ],
      "stateMutability": "view",
      "type": "function"
    },
    {
      "inputs": [],
      "name": "symbol",
      "outputs": [
        {
          "internalType": "string",
          "name": "",
          "type": "string"
        }
      ],
      "stateMutability": "view",
      "type": "function"
    },
    {
      "inputs": [
        {
          "internalType": "uint256",
          "name": "index",
          "type": "uint256"
        }
      ],
      "name": "tokenByIndex",
      "outputs": [
        {
          "internalType": "uint256",
          "name": "",
          "type": "uint256"
        }
      ],
      "stateMutability": "view",
      "type": "function"
    },
    {
      "inputs": [
        {
          "internalType": "address",
          "name": "owner",
          "type": "address"
        },
        {
          "internalType": "uint256",
          "name": "index",
          "type": "uint256"
        }
      ],
      "name": "tokenOfOwnerByIndex",
      "outputs": [
        {
          "internalType": "uint256",
          "name": "",
          "type": "uint256"
        }
      ],
      "stateMutability": "view",
      "type": "function"
    },
    {
      "inputs": [
        {
          "internalType": "uint256",
          "name": "tokenId",
          "type": "uint256"
        }
      ],
      "name": "tokenURI",
      "outputs": [
        {
          "internalType": "string",
          "name": "",
          "type": "string"
        }
      ],
      "stateMutability": "view",
      "type": "function"
    },
    {
      "inputs": [],
      "name": "totalSupply",
      "outputs": [
        {
          "internalType": "uint256",
          "name": "",
          "type": "uint256"
        }
      ],
      "stateMutability": "view",
      "type": "function"
    },
    {
      "inputs": [
        {
          "internalType": "address",
          "name": "from",
          "type": "address"
        },
        {
          "internalType": "address",
          "name": "to",
          "type": "address"
        },
        {
          "internalType": "uint256",
          "name": "tokenId",
          "type": "uint256"
        }
      ],
      "name": "transferFrom",
      "outputs": [],
      "stateMutability": "nonpayable",
      "type": "function"
    },
    {
      "inputs": [
        {
          "internalType": "address",
          "name": "newOwner",
          "type": "address"
        }
      ],
      "name": "transferOwnership",
      "outputs": [],
      "stateMutability": "nonpayable",
      "type": "function"
    },
    {
      "inputs": [
        {
          "internalType": "address",
          "name": "_owner",
          "type": "address"
        }
      ],
      "name": "walletOfOwner",
      "outputs": [
        {
          "internalType": "uint256[]",
          "name": "",
          "type": "uint256[]"
        }
      ],
      "stateMutability": "view",
      "type": "function"
    },
    {
      "inputs": [
        {
          "internalType": "address",
          "name": "_user",
          "type": "address"
        }
      ],
      "name": "whitelistUser",
      "outputs": [],
      "stateMutability": "nonpayable",
      "type": "function"
    },
    {
      "inputs": [
        {
          "internalType": "address",
          "name": "",
          "type": "address"
        }
      ],
      "name": "whitelisted",
      "outputs": [
        {
          "internalType": "bool",
          "name": "",
          "type": "bool"
        }
      ],
      "stateMutability": "view",
      "type": "function"
    },
    {
      "inputs": [],
      "name": "withdraw",
      "outputs": [],
      "stateMutability": "payable",
      "type": "function"
    }
  ],
  "bytecode": "0x60806040526040518060400160405280600581526020017f2e6a736f6e000000000000000000000000000000000000000000000000000000815250600c90805190602001906200005192919062000ed5565b506658d15e17628000600d556103e8600e55600a600f556000601060006101000a81548160ff0219169083151502179055503480156200009057600080fd5b5060405162005cad38038062005cad8339818101604052810190620000b691906200103a565b82828160009080519060200190620000d092919062000ed5565b508060019080519060200190620000e992919062000ed5565b5050506200010c620001006200013960201b60201c565b6200014160201b60201c565b6200011d816200020760201b60201c565b62000130336002620002b260201b60201c565b505050620017af565b600033905090565b6000600a60009054906101000a900473ffffffffffffffffffffffffffffffffffffffff16905081600a60006101000a81548173ffffffffffffffffffffffffffffffffffffffff021916908373ffffffffffffffffffffffffffffffffffffffff1602179055508173ffffffffffffffffffffffffffffffffffffffff168173ffffffffffffffffffffffffffffffffffffffff167f8be0079c531659141344cd1fd0a4f28419497f9722a3daafe3b4186f6b6457e060405160405180910390a35050565b620002176200013960201b60201c565b73ffffffffffffffffffffffffffffffffffffffff166200023d6200042160201b60201c565b73ffffffffffffffffffffffffffffffffffffffff161462000296576040517f08c379a00000000000000000000000000000000000000000000000000000000081526004016200028d90620012dd565b60405180910390fd5b80600b9080519060200190620002ae92919062000ed5565b5050565b6000620002c46200044b60201b60201c565b9050601060009054906101000a900460ff1615620002e157600080fd5b60008211620002ef57600080fd5b600f54821115620002ff57600080fd5b600e5482826200031091906200138b565b11156200031c57600080fd5b6200032c6200042160201b60201c565b73ffffffffffffffffffffffffffffffffffffffff163373ffffffffffffffffffffffffffffffffffffffff1614620003d75760011515601160003373ffffffffffffffffffffffffffffffffffffffff1673ffffffffffffffffffffffffffffffffffffffff16815260200190815260200160002060009054906101000a900460ff16151514620003d65781600d54620003c89190620013e8565b341015620003d557600080fd5b5b5b6000600190505b8281116200041b5762000405848284620003f991906200138b565b6200045860201b60201c565b8080620004129062001590565b915050620003de565b50505050565b6000600a60009054906101000a900473ffffffffffffffffffffffffffffffffffffffff16905090565b6000600880549050905090565b6200047a8282604051806020016040528060008152506200047e60201b60201c565b5050565b620004908383620004ec60201b60201c565b620004a56000848484620006e660201b60201c565b620004e7576040517f08c379a0000000000000000000000000000000000000000000000000000000008152600401620004de9062001255565b60405180910390fd5b505050565b600073ffffffffffffffffffffffffffffffffffffffff168273ffffffffffffffffffffffffffffffffffffffff1614156200055f576040517f08c379a00000000000000000000000000000000000000000000000000000000081526004016200055690620012bb565b60405180910390fd5b6200057081620008a060201b60201c565b15620005b3576040517f08c379a0000000000000000000000000000000000000000000000000000000008152600401620005aa9062001277565b60405180910390fd5b620005c7600083836200090c60201b60201c565b6001600360008473ffffffffffffffffffffffffffffffffffffffff1673ffffffffffffffffffffffffffffffffffffffff16815260200190815260200160002060008282546200061991906200138b565b92505081905550816002600083815260200190815260200160002060006101000a81548173ffffffffffffffffffffffffffffffffffffffff021916908373ffffffffffffffffffffffffffffffffffffffff160217905550808273ffffffffffffffffffffffffffffffffffffffff16600073ffffffffffffffffffffffffffffffffffffffff167fddf252ad1be2c89b69c2b068fc378daa952ba7f163c4a11628f55a4df523b3ef60405160405180910390a4620006e26000838362000a5360201b60201c565b5050565b6000620007148473ffffffffffffffffffffffffffffffffffffffff1662000a5860201b62001b601760201c565b1562000893578373ffffffffffffffffffffffffffffffffffffffff1663150b7a02620007466200013960201b60201c565b8786866040518563ffffffff1660e01b81526004016200076a949392919062001201565b602060405180830381600087803b1580156200078557600080fd5b505af1925050508015620007b957506040513d601f19601f82011682018060405250810190620007b691906200100e565b60015b62000842573d8060008114620007ec576040519150601f19603f3d011682016040523d82523d6000602084013e620007f1565b606091505b506000815114156200083a576040517f08c379a0000000000000000000000000000000000000000000000000000000008152600401620008319062001255565b60405180910390fd5b805181602001fd5b63150b7a0260e01b7bffffffffffffffffffffffffffffffffffffffffffffffffffffffff1916817bffffffffffffffffffffffffffffffffffffffffffffffffffffffff19161491505062000898565b600190505b949350505050565b60008073ffffffffffffffffffffffffffffffffffffffff166002600084815260200190815260200160002060009054906101000a900473ffffffffffffffffffffffffffffffffffffffff1673ffffffffffffffffffffffffffffffffffffffff1614159050919050565b6200092483838362000a7b60201b62001b831760201c565b600073ffffffffffffffffffffffffffffffffffffffff168373ffffffffffffffffffffffffffffffffffffffff16141562000971576200096b8162000a8060201b60201c565b620009b9565b8173ffffffffffffffffffffffffffffffffffffffff168373ffffffffffffffffffffffffffffffffffffffff1614620009b857620009b7838262000ac960201b60201c565b5b5b600073ffffffffffffffffffffffffffffffffffffffff168273ffffffffffffffffffffffffffffffffffffffff16141562000a065762000a008162000c4660201b60201c565b62000a4e565b8273ffffffffffffffffffffffffffffffffffffffff168273ffffffffffffffffffffffffffffffffffffffff161462000a4d5762000a4c828262000d8e60201b60201c565b5b5b505050565b505050565b6000808273ffffffffffffffffffffffffffffffffffffffff163b119050919050565b505050565b6008805490506009600083815260200190815260200160002081905550600881908060018154018082558091505060019003906000526020600020016000909190919091505550565b6000600162000ae38462000e1a60201b620014e61760201c565b62000aef919062001449565b905060006007600084815260200190815260200160002054905081811462000bd5576000600660008673ffffffffffffffffffffffffffffffffffffffff1673ffffffffffffffffffffffffffffffffffffffff168152602001908152602001600020600084815260200190815260200160002054905080600660008773ffffffffffffffffffffffffffffffffffffffff1673ffffffffffffffffffffffffffffffffffffffff168152602001908152602001600020600084815260200190815260200160002081905550816007600083815260200190815260200160002081905550505b6007600084815260200190815260200160002060009055600660008573ffffffffffffffffffffffffffffffffffffffff1673ffffffffffffffffffffffffffffffffffffffff16815260200190815260200160002060008381526020019081526020016000206000905550505050565b6000600160088054905062000c5c919062001449565b905060006009600084815260200190815260200160002054905060006008838154811062000cb3577f4e487b7100000000000000000000000000000000000000000000000000000000600052603260045260246000fd5b90600052602060002001549050806008838154811062000cfc577f4e487b7100000000000000000000000000000000000000000000000000000000600052603260045260246000fd5b90600052602060002001819055508160096000838152602001908152602001600020819055506009600085815260200190815260200160002060009055600880548062000d72577f4e487b7100000000000000000000000000000000000000000000000000000000600052603160045260246000fd5b6001900381819060005260206000200160009055905550505050565b600062000da68362000e1a60201b620014e61760201c565b905081600660008573ffffffffffffffffffffffffffffffffffffffff1673ffffffffffffffffffffffffffffffffffffffff168152602001908152602001600020600083815260200190815260200160002081905550806007600084815260200190815260200160002081905550505050565b60008073ffffffffffffffffffffffffffffffffffffffff168273ffffffffffffffffffffffffffffffffffffffff16141562000e8e576040517f08c379a000000000000000000000000000000000000000000000000000000000815260040162000e859062001299565b60405180910390fd5b600360008373ffffffffffffffffffffffffffffffffffffffff1673ffffffffffffffffffffffffffffffffffffffff168152602001908152602001600020549050919050565b82805462000ee39062001524565b90600052602060002090601f01602090048101928262000f07576000855562000f53565b82601f1062000f2257805160ff191683800117855562000f53565b8280016001018555821562000f53579182015b8281111562000f5257825182559160200191906001019062000f35565b5b50905062000f62919062000f66565b5090565b5b8082111562000f8157600081600090555060010162000f67565b5090565b600062000f9c62000f968462001328565b620012ff565b90508281526020810184848401111562000fb557600080fd5b62000fc2848285620014ee565b509392505050565b60008151905062000fdb8162001795565b92915050565b600082601f83011262000ff357600080fd5b81516200100584826020860162000f85565b91505092915050565b6000602082840312156200102157600080fd5b6000620010318482850162000fca565b91505092915050565b6000806000606084860312156200105057600080fd5b600084015167ffffffffffffffff8111156200106b57600080fd5b620010798682870162000fe1565b935050602084015167ffffffffffffffff8111156200109757600080fd5b620010a58682870162000fe1565b925050604084015167ffffffffffffffff811115620010c357600080fd5b620010d18682870162000fe1565b9150509250925092565b620010e68162001484565b82525050565b6000620010f9826200135e565b62001105818562001369565b935062001117818560208601620014ee565b62001122816200166b565b840191505092915050565b60006200113c6032836200137a565b915062001149826200167c565b604082019050919050565b600062001163601c836200137a565b91506200117082620016cb565b602082019050919050565b60006200118a602a836200137a565b91506200119782620016f4565b604082019050919050565b6000620011b16020836200137a565b9150620011be8262001743565b602082019050919050565b6000620011d86020836200137a565b9150620011e5826200176c565b602082019050919050565b620011fb81620014e4565b82525050565b6000608082019050620012186000830187620010db565b620012276020830186620010db565b620012366040830185620011f0565b81810360608301526200124a8184620010ec565b905095945050505050565b6000602082019050818103600083015262001270816200112d565b9050919050565b60006020820190508181036000830152620012928162001154565b9050919050565b60006020820190508181036000830152620012b4816200117b565b9050919050565b60006020820190508181036000830152620012d681620011a2565b9050919050565b60006020820190508181036000830152620012f881620011c9565b9050919050565b60006200130b6200131e565b90506200131982826200155a565b919050565b6000604051905090565b600067ffffffffffffffff8211156200134657620013456200163c565b5b62001351826200166b565b9050602081019050919050565b600081519050919050565b600082825260208201905092915050565b600082825260208201905092915050565b60006200139882620014e4565b9150620013a583620014e4565b9250827fffffffffffffffffffffffffffffffffffffffffffffffffffffffffffffffff03821115620013dd57620013dc620015de565b5b828201905092915050565b6000620013f582620014e4565b91506200140283620014e4565b9250817fffffffffffffffffffffffffffffffffffffffffffffffffffffffffffffffff04831182151516156200143e576200143d620015de565b5b828202905092915050565b60006200145682620014e4565b91506200146383620014e4565b925082821015620014795762001478620015de565b5b828203905092915050565b60006200149182620014c4565b9050919050565b60007fffffffff0000000000000000000000000000000000000000000000000000000082169050919050565b600073ffffffffffffffffffffffffffffffffffffffff82169050919050565b6000819050919050565b60005b838110156200150e578082015181840152602081019050620014f1565b838111156200151e576000848401525b50505050565b600060028204905060018216806200153d57607f821691505b602082108114156200155457620015536200160d565b5b50919050565b62001565826200166b565b810181811067ffffffffffffffff821117156200158757620015866200163c565b5b80604052505050565b60006200159d82620014e4565b91507fffffffffffffffffffffffffffffffffffffffffffffffffffffffffffffffff821415620015d357620015d2620015de565b5b600182019050919050565b7f4e487b7100000000000000000000000000000000000000000000000000000000600052601160045260246000fd5b7f4e487b7100000000000000000000000000000000000000000000000000000000600052602260045260246000fd5b7f4e487b7100000000000000000000000000000000000000000000000000000000600052604160045260246000fd5b6000601f19601f8301169050919050565b7f4552433732313a207472616e7366657220746f206e6f6e20455243373231526560008201527f63656976657220696d706c656d656e7465720000000000000000000000000000602082015250565b7f4552433732313a20746f6b656e20616c7265616479206d696e74656400000000600082015250565b7f4552433732313a2062616c616e636520717565727920666f7220746865207a6560008201527f726f206164647265737300000000000000000000000000000000000000000000602082015250565b7f4552433732313a206d696e7420746f20746865207a65726f2061646472657373600082015250565b7f4f776e61626c653a2063616c6c6572206973206e6f7420746865206f776e6572600082015250565b620017a08162001498565b8114620017ac57600080fd5b50565b6144ee80620017bf6000396000f3fe60806040526004361061020f5760003560e01c806355f804b311610118578063a22cb465116100a0578063d5abeb011161006f578063d5abeb011461077f578063d936547e146107aa578063da3ef23f146107e7578063e985e9c514610810578063f2fde38b1461084d5761020f565b8063a22cb465146106c5578063b88d4fde146106ee578063c668286214610717578063c87b56dd146107425761020f565b806370a08231116100e757806370a08231146105f2578063715018a61461062f5780637f00c7a6146106465780638da5cb5b1461066f57806395d89b411461069a5761020f565b806355f804b3146105365780635c975abb1461055f5780636352211e1461058a5780636c0360eb146105c75761020f565b80632f745c591161019b57806342842e0e1161016a57806342842e0e14610441578063438b63001461046a57806344a0d68a146104a75780634a4c560d146104d05780634f6ccce7146104f95761020f565b80632f745c59146103b557806330cc7ae0146103f25780633ccfd60b1461041b57806340c10f19146104255761020f565b8063095ea7b3116101e2578063095ea7b3146102e257806313faede61461030b57806318160ddd14610336578063239c70ae1461036157806323b872dd1461038c5761020f565b806301ffc9a71461021457806302329a291461025157806306fdde031461027a578063081812fc146102a5575b600080fd5b34801561022057600080fd5b5061023b6004803603810190610236919061323b565b610876565b6040516102489190613833565b60405180910390f35b34801561025d57600080fd5b5061027860048036038101906102739190613212565b6108f0565b005b34801561028657600080fd5b5061028f610989565b60405161029c919061384e565b60405180910390f35b3480156102b157600080fd5b506102cc60048036038101906102c791906132ce565b610a1b565b6040516102d991906137aa565b60405180910390f35b3480156102ee57600080fd5b50610309600480360381019061030491906131d6565b610aa0565b005b34801561031757600080fd5b50610320610bb8565b60405161032d9190613ab0565b60405180910390f35b34801561034257600080fd5b5061034b610bbe565b6040516103589190613ab0565b60405180910390f35b34801561036d57600080fd5b50610376610bcb565b6040516103839190613ab0565b60405180910390f35b34801561039857600080fd5b506103b360048036038101906103ae91906130d0565b610bd1565b005b3480156103c157600080fd5b506103dc60048036038101906103d791906131d6565b610c31565b6040516103e99190613ab0565b60405180910390f35b3480156103fe57600080fd5b506104196004803603810190610414919061306b565b610cd6565b005b610423610dad565b005b61043f600480360381019061043a91906131d6565b610ea9565b005b34801561044d57600080fd5b50610468600480360381019061046391906130d0565b610fef565b005b34801561047657600080fd5b50610491600480360381019061048c919061306b565b61100f565b60405161049e9190613811565b60405180910390f35b3480156104b357600080fd5b506104ce60048036038101906104c991906132ce565b611109565b005b3480156104dc57600080fd5b506104f760048036038101906104f2919061306b565b61118f565b005b34801561050557600080fd5b50610520600480360381019061051b91906132ce565b611266565b60405161052d9190613ab0565b60405180910390f35b34801561054257600080fd5b5061055d6004803603810190610558919061328d565b6112fd565b005b34801561056b57600080fd5b50610574611393565b6040516105819190613833565b60405180910390f35b34801561059657600080fd5b506105b160048036038101906105ac91906132ce565b6113a6565b6040516105be91906137aa565b60405180910390f35b3480156105d357600080fd5b506105dc611458565b6040516105e9919061384e565b60405180910390f35b3480156105fe57600080fd5b506106196004803603810190610614919061306b565b6114e6565b6040516106269190613ab0565b60405180910390f35b34801561063b57600080fd5b5061064461159e565b005b34801561065257600080fd5b5061066d600480360381019061066891906132ce565b611626565b005b34801561067b57600080fd5b506106846116ac565b60405161069191906137aa565b60405180910390f35b3480156106a657600080fd5b506106af6116d6565b6040516106bc919061384e565b60405180910390f35b3480156106d157600080fd5b506106ec60048036038101906106e7919061319a565b611768565b005b3480156106fa57600080fd5b506107156004803603810190610710919061311f565b61177e565b005b34801561072357600080fd5b5061072c6117e0565b604051610739919061384e565b60405180910390f35b34801561074e57600080fd5b50610769600480360381019061076491906132ce565b61186e565b604051610776919061384e565b60405180910390f35b34801561078b57600080fd5b50610794611918565b6040516107a19190613ab0565b60405180910390f35b3480156107b657600080fd5b506107d160048036038101906107cc919061306b565b61191e565b6040516107de9190613833565b60405180910390f35b3480156107f357600080fd5b5061080e6004803603810190610809919061328d565b61193e565b005b34801561081c57600080fd5b5061083760048036038101906108329190613094565b6119d4565b6040516108449190613833565b60405180910390f35b34801561085957600080fd5b50610874600480360381019061086f919061306b565b611a68565b005b60007f780e9d63000000000000000000000000000000000000000000000000000000007bffffffffffffffffffffffffffffffffffffffffffffffffffffffff1916827bffffffffffffffffffffffffffffffffffffffffffffffffffffffff191614806108e957506108e882611b88565b5b9050919050565b6108f8611c6a565b73ffffffffffffffffffffffffffffffffffffffff166109166116ac565b73ffffffffffffffffffffffffffffffffffffffff161461096c576040517f08c379a000000000000000000000000000000000000000000000000000000000815260040161096390613a10565b60405180910390fd5b80601060006101000a81548160ff02191690831515021790555050565b60606000805461099890613db9565b80601f01602080910402602001604051908101604052809291908181526020018280546109c490613db9565b8015610a115780601f106109e657610100808354040283529160200191610a11565b820191906000526020600020905b8154815290600101906020018083116109f457829003601f168201915b5050505050905090565b6000610a2682611c72565b610a65576040517f08c379a0000000000000000000000000000000000000000000000000000000008152600401610a5c906139f0565b60405180910390fd5b6004600083815260200190815260200160002060009054906101000a900473ffffffffffffffffffffffffffffffffffffffff169050919050565b6000610aab826113a6565b90508073ffffffffffffffffffffffffffffffffffffffff168373ffffffffffffffffffffffffffffffffffffffff161415610b1c576040517f08c379a0000000000000000000000000000000000000000000000000000000008152600401610b1390613a50565b60405180910390fd5b8073ffffffffffffffffffffffffffffffffffffffff16610b3b611c6a565b73ffffffffffffffffffffffffffffffffffffffff161480610b6a5750610b6981610b64611c6a565b6119d4565b5b610ba9576040517f08c379a0000000000000000000000000000000000000000000000000000000008152600401610ba090613970565b60405180910390fd5b610bb38383611cde565b505050565b600d5481565b6000600880549050905090565b600f5481565b610be2610bdc611c6a565b82611d97565b610c21576040517f08c379a0000000000000000000000000000000000000000000000000000000008152600401610c1890613a70565b60405180910390fd5b610c2c838383611e75565b505050565b6000610c3c836114e6565b8210610c7d576040517f08c379a0000000000000000000000000000000000000000000000000000000008152600401610c7490613870565b60405180910390fd5b600660008473ffffffffffffffffffffffffffffffffffffffff1673ffffffffffffffffffffffffffffffffffffffff168152602001908152602001600020600083815260200190815260200160002054905092915050565b610cde611c6a565b73ffffffffffffffffffffffffffffffffffffffff16610cfc6116ac565b73ffffffffffffffffffffffffffffffffffffffff1614610d52576040517f08c379a0000000000000000000000000000000000000000000000000000000008152600401610d4990613a10565b60405180910390fd5b6000601160008373ffffffffffffffffffffffffffffffffffffffff1673ffffffffffffffffffffffffffffffffffffffff16815260200190815260200160002060006101000a81548160ff02191690831515021790555050565b610db5611c6a565b73ffffffffffffffffffffffffffffffffffffffff16610dd36116ac565b73ffffffffffffffffffffffffffffffffffffffff1614610e29576040517f08c379a0000000000000000000000000000000000000000000000000000000008152600401610e2090613a10565b60405180910390fd5b6000610e336116ac565b73ffffffffffffffffffffffffffffffffffffffff1647604051610e5690613795565b60006040518083038185875af1925050503d8060008114610e93576040519150601f19603f3d011682016040523d82523d6000602084013e610e98565b606091505b5050905080610ea657600080fd5b50565b6000610eb3610bbe565b9050601060009054906101000a900460ff1615610ecf57600080fd5b60008211610edc57600080fd5b600f54821115610eeb57600080fd5b600e548282610efa9190613bee565b1115610f0557600080fd5b610f0d6116ac565b73ffffffffffffffffffffffffffffffffffffffff163373ffffffffffffffffffffffffffffffffffffffff1614610fb35760011515601160003373ffffffffffffffffffffffffffffffffffffffff1673ffffffffffffffffffffffffffffffffffffffff16815260200190815260200160002060009054906101000a900460ff16151514610fb25781600d54610fa59190613c75565b341015610fb157600080fd5b5b5b6000600190505b828111610fe957610fd6848284610fd19190613bee565b6120dc565b8080610fe190613e1c565b915050610fba565b50505050565b61100a8383836040518060200160405280600081525061177e565b505050565b6060600061101c836114e6565b905060008167ffffffffffffffff811115611060577f4e487b7100000000000000000000000000000000000000000000000000000000600052604160045260246000fd5b60405190808252806020026020018201604052801561108e5781602001602082028036833780820191505090505b50905060005b828110156110fe576110a68582610c31565b8282815181106110df577f4e487b7100000000000000000000000000000000000000000000000000000000600052603260045260246000fd5b60200260200101818152505080806110f690613e1c565b915050611094565b508092505050919050565b611111611c6a565b73ffffffffffffffffffffffffffffffffffffffff1661112f6116ac565b73ffffffffffffffffffffffffffffffffffffffff1614611185576040517f08c379a000000000000000000000000000000000000000000000000000000000815260040161117c90613a10565b60405180910390fd5b80600d8190555050565b611197611c6a565b73ffffffffffffffffffffffffffffffffffffffff166111b56116ac565b73ffffffffffffffffffffffffffffffffffffffff161461120b576040517f08c379a000000000000000000000000000000000000000000000000000000000815260040161120290613a10565b60405180910390fd5b6001601160008373ffffffffffffffffffffffffffffffffffffffff1673ffffffffffffffffffffffffffffffffffffffff16815260200190815260200160002060006101000a81548160ff02191690831515021790555050565b6000611270610bbe565b82106112b1576040517f08c379a00000000000000000000000000000000000000000000000000000000081526004016112a890613a90565b60405180910390fd5b600882815481106112eb577f4e487b7100000000000000000000000000000000000000000000000000000000600052603260045260246000fd5b90600052602060002001549050919050565b611305611c6a565b73ffffffffffffffffffffffffffffffffffffffff166113236116ac565b73ffffffffffffffffffffffffffffffffffffffff1614611379576040517f08c379a000000000000000000000000000000000000000000000000000000000815260040161137090613a10565b60405180910390fd5b80600b908051906020019061138f929190612e8f565b5050565b601060009054906101000a900460ff1681565b6000806002600084815260200190815260200160002060009054906101000a900473ffffffffffffffffffffffffffffffffffffffff169050600073ffffffffffffffffffffffffffffffffffffffff168173ffffffffffffffffffffffffffffffffffffffff16141561144f576040517f08c379a0000000000000000000000000000000000000000000000000000000008152600401611446906139b0565b60405180910390fd5b80915050919050565b600b805461146590613db9565b80601f016020809104026020016040519081016040528092919081815260200182805461149190613db9565b80156114de5780601f106114b3576101008083540402835291602001916114de565b820191906000526020600020905b8154815290600101906020018083116114c157829003601f168201915b505050505081565b60008073ffffffffffffffffffffffffffffffffffffffff168273ffffffffffffffffffffffffffffffffffffffff161415611557576040517f08c379a000000000000000000000000000000000000000000000000000000000815260040161154e90613990565b60405180910390fd5b600360008373ffffffffffffffffffffffffffffffffffffffff1673ffffffffffffffffffffffffffffffffffffffff168152602001908152602001600020549050919050565b6115a6611c6a565b73ffffffffffffffffffffffffffffffffffffffff166115c46116ac565b73ffffffffffffffffffffffffffffffffffffffff161461161a576040517f08c379a000000000000000000000000000000000000000000000000000000000815260040161161190613a10565b60405180910390fd5b61162460006120fa565b565b61162e611c6a565b73ffffffffffffffffffffffffffffffffffffffff1661164c6116ac565b73ffffffffffffffffffffffffffffffffffffffff16146116a2576040517f08c379a000000000000000000000000000000000000000000000000000000000815260040161169990613a10565b60405180910390fd5b80600f8190555050565b6000600a60009054906101000a900473ffffffffffffffffffffffffffffffffffffffff16905090565b6060600180546116e590613db9565b80601f016020809104026020016040519081016040528092919081815260200182805461171190613db9565b801561175e5780601f106117335761010080835404028352916020019161175e565b820191906000526020600020905b81548152906001019060200180831161174157829003601f168201915b5050505050905090565b61177a611773611c6a565b83836121c0565b5050565b61178f611789611c6a565b83611d97565b6117ce576040517f08c379a00000000000000000000000000000000000000000000000000000000081526004016117c590613a70565b60405180910390fd5b6117da8484848461232d565b50505050565b600c80546117ed90613db9565b80601f016020809104026020016040519081016040528092919081815260200182805461181990613db9565b80156118665780601f1061183b57610100808354040283529160200191611866565b820191906000526020600020905b81548152906001019060200180831161184957829003601f168201915b505050505081565b606061187982611c72565b6118b8576040517f08c379a00000000000000000000000000000000000000000000000000000000081526004016118af90613a30565b60405180910390fd5b60006118c2612389565b905060008151116118e25760405180602001604052806000815250611910565b806118ec8461241b565b600c60405160200161190093929190613764565b6040516020818303038152906040525b915050919050565b600e5481565b60116020528060005260406000206000915054906101000a900460ff1681565b611946611c6a565b73ffffffffffffffffffffffffffffffffffffffff166119646116ac565b73ffffffffffffffffffffffffffffffffffffffff16146119ba576040517f08c379a00000000000000000000000000000000000000000000000000000000081526004016119b190613a10565b60405180910390fd5b80600c90805190602001906119d0929190612e8f565b5050565b6000600560008473ffffffffffffffffffffffffffffffffffffffff1673ffffffffffffffffffffffffffffffffffffffff16815260200190815260200160002060008373ffffffffffffffffffffffffffffffffffffffff1673ffffffffffffffffffffffffffffffffffffffff16815260200190815260200160002060009054906101000a900460ff16905092915050565b611a70611c6a565b73ffffffffffffffffffffffffffffffffffffffff16611a8e6116ac565b73ffffffffffffffffffffffffffffffffffffffff1614611ae4576040517f08c379a0000000000000000000000000000000000000000000000000000000008152600401611adb90613a10565b60405180910390fd5b600073ffffffffffffffffffffffffffffffffffffffff168173ffffffffffffffffffffffffffffffffffffffff161415611b54576040517f08c379a0000000000000000000000000000000000000000000000000000000008152600401611b4b906138b0565b60405180910390fd5b611b5d816120fa565b50565b6000808273ffffffffffffffffffffffffffffffffffffffff163b119050919050565b505050565b60007f80ac58cd000000000000000000000000000000000000000000000000000000007bffffffffffffffffffffffffffffffffffffffffffffffffffffffff1916827bffffffffffffffffffffffffffffffffffffffffffffffffffffffff19161480611c5357507f5b5e139f000000000000000000000000000000000000000000000000000000007bffffffffffffffffffffffffffffffffffffffffffffffffffffffff1916827bffffffffffffffffffffffffffffffffffffffffffffffffffffffff1916145b80611c635750611c62826125c8565b5b9050919050565b600033905090565b60008073ffffffffffffffffffffffffffffffffffffffff166002600084815260200190815260200160002060009054906101000a900473ffffffffffffffffffffffffffffffffffffffff1673ffffffffffffffffffffffffffffffffffffffff1614159050919050565b816004600083815260200190815260200160002060006101000a81548173ffffffffffffffffffffffffffffffffffffffff021916908373ffffffffffffffffffffffffffffffffffffffff160217905550808273ffffffffffffffffffffffffffffffffffffffff16611d51836113a6565b73ffffffffffffffffffffffffffffffffffffffff167f8c5be1e5ebec7d5bd14f71427d1e84f3dd0314c0f7b2291e5b200ac8c7c3b92560405160405180910390a45050565b6000611da282611c72565b611de1576040517f08c379a0000000000000000000000000000000000000000000000000000000008152600401611dd890613950565b60405180910390fd5b6000611dec836113a6565b90508073ffffffffffffffffffffffffffffffffffffffff168473ffffffffffffffffffffffffffffffffffffffff161480611e2e5750611e2d81856119d4565b5b80611e6c57508373ffffffffffffffffffffffffffffffffffffffff16611e5484610a1b565b73ffffffffffffffffffffffffffffffffffffffff16145b91505092915050565b8273ffffffffffffffffffffffffffffffffffffffff16611e95826113a6565b73ffffffffffffffffffffffffffffffffffffffff1614611eeb576040517f08c379a0000000000000000000000000000000000000000000000000000000008152600401611ee2906138d0565b60405180910390fd5b600073ffffffffffffffffffffffffffffffffffffffff168273ffffffffffffffffffffffffffffffffffffffff161415611f5b576040517f08c379a0000000000000000000000000000000000000000000000000000000008152600401611f5290613910565b60405180910390fd5b611f66838383612632565b611f71600082611cde565b6001600360008573ffffffffffffffffffffffffffffffffffffffff1673ffffffffffffffffffffffffffffffffffffffff1681526020019081526020016000206000828254611fc19190613ccf565b925050819055506001600360008473ffffffffffffffffffffffffffffffffffffffff1673ffffffffffffffffffffffffffffffffffffffff16815260200190815260200160002060008282546120189190613bee565b92505081905550816002600083815260200190815260200160002060006101000a81548173ffffffffffffffffffffffffffffffffffffffff021916908373ffffffffffffffffffffffffffffffffffffffff160217905550808273ffffffffffffffffffffffffffffffffffffffff168473ffffffffffffffffffffffffffffffffffffffff167fddf252ad1be2c89b69c2b068fc378daa952ba7f163c4a11628f55a4df523b3ef60405160405180910390a46120d7838383612746565b505050565b6120f682826040518060200160405280600081525061274b565b5050565b6000600a60009054906101000a900473ffffffffffffffffffffffffffffffffffffffff16905081600a60006101000a81548173ffffffffffffffffffffffffffffffffffffffff021916908373ffffffffffffffffffffffffffffffffffffffff1602179055508173ffffffffffffffffffffffffffffffffffffffff168173ffffffffffffffffffffffffffffffffffffffff167f8be0079c531659141344cd1fd0a4f28419497f9722a3daafe3b4186f6b6457e060405160405180910390a35050565b8173ffffffffffffffffffffffffffffffffffffffff168373ffffffffffffffffffffffffffffffffffffffff16141561222f576040517f08c379a000000000000000000000000000000000000000000000000000000000815260040161222690613930565b60405180910390fd5b80600560008573ffffffffffffffffffffffffffffffffffffffff1673ffffffffffffffffffffffffffffffffffffffff16815260200190815260200160002060008473ffffffffffffffffffffffffffffffffffffffff1673ffffffffffffffffffffffffffffffffffffffff16815260200190815260200160002060006101000a81548160ff0219169083151502179055508173ffffffffffffffffffffffffffffffffffffffff168373ffffffffffffffffffffffffffffffffffffffff167f17307eab39ab6107e8899845ad3d59bd9653f200f220920489ca2b5937696c31836040516123209190613833565b60405180910390a3505050565b612338848484611e75565b612344848484846127a6565b612383576040517f08c379a000000000000000000000000000000000000000000000000000000000815260040161237a90613890565b60405180910390fd5b50505050565b6060600b805461239890613db9565b80601f01602080910402602001604051908101604052809291908181526020018280546123c490613db9565b80156124115780601f106123e657610100808354040283529160200191612411565b820191906000526020600020905b8154815290600101906020018083116123f457829003601f168201915b5050505050905090565b60606000821415612463576040518060400160405280600181526020017f300000000000000000000000000000000000000000000000000000000000000081525090506125c3565b600082905060005b6000821461249557808061247e90613e1c565b915050600a8261248e9190613c44565b915061246b565b60008167ffffffffffffffff8111156124d7577f4e487b7100000000000000000000000000000000000000000000000000000000600052604160045260246000fd5b6040519080825280601f01601f1916602001820160405280156125095781602001600182028036833780820191505090505b5090505b600085146125bc576001826125229190613ccf565b9150600a856125319190613e65565b603061253d9190613bee565b60f81b818381518110612579577f4e487b7100000000000000000000000000000000000000000000000000000000600052603260045260246000fd5b60200101907effffffffffffffffffffffffffffffffffffffffffffffffffffffffffffff1916908160001a905350600a856125b59190613c44565b945061250d565b8093505050505b919050565b60007f01ffc9a7000000000000000000000000000000000000000000000000000000007bffffffffffffffffffffffffffffffffffffffffffffffffffffffff1916827bffffffffffffffffffffffffffffffffffffffffffffffffffffffff1916149050919050565b61263d838383611b83565b600073ffffffffffffffffffffffffffffffffffffffff168373ffffffffffffffffffffffffffffffffffffffff1614156126805761267b8161293d565b6126bf565b8173ffffffffffffffffffffffffffffffffffffffff168373ffffffffffffffffffffffffffffffffffffffff16146126be576126bd8382612986565b5b5b600073ffffffffffffffffffffffffffffffffffffffff168273ffffffffffffffffffffffffffffffffffffffff161415612702576126fd81612af3565b612741565b8273ffffffffffffffffffffffffffffffffffffffff168273ffffffffffffffffffffffffffffffffffffffff16146127405761273f8282612c36565b5b5b505050565b505050565b6127558383612cb5565b61276260008484846127a6565b6127a1576040517f08c379a000000000000000000000000000000000000000000000000000000000815260040161279890613890565b60405180910390fd5b505050565b60006127c78473ffffffffffffffffffffffffffffffffffffffff16611b60565b15612930578373ffffffffffffffffffffffffffffffffffffffff1663150b7a026127f0611c6a565b8786866040518563ffffffff1660e01b815260040161281294939291906137c5565b602060405180830381600087803b15801561282c57600080fd5b505af192505050801561285d57506040513d601f19601f8201168201806040525081019061285a9190613264565b60015b6128e0573d806000811461288d576040519150601f19603f3d011682016040523d82523d6000602084013e612892565b606091505b506000815114156128d8576040517f08c379a00000000000000000000000000000000000000000000000000000000081526004016128cf90613890565b60405180910390fd5b805181602001fd5b63150b7a0260e01b7bffffffffffffffffffffffffffffffffffffffffffffffffffffffff1916817bffffffffffffffffffffffffffffffffffffffffffffffffffffffff191614915050612935565b600190505b949350505050565b6008805490506009600083815260200190815260200160002081905550600881908060018154018082558091505060019003906000526020600020016000909190919091505550565b60006001612993846114e6565b61299d9190613ccf565b9050600060076000848152602001908152602001600020549050818114612a82576000600660008673ffffffffffffffffffffffffffffffffffffffff1673ffffffffffffffffffffffffffffffffffffffff168152602001908152602001600020600084815260200190815260200160002054905080600660008773ffffffffffffffffffffffffffffffffffffffff1673ffffffffffffffffffffffffffffffffffffffff168152602001908152602001600020600084815260200190815260200160002081905550816007600083815260200190815260200160002081905550505b6007600084815260200190815260200160002060009055600660008573ffffffffffffffffffffffffffffffffffffffff1673ffffffffffffffffffffffffffffffffffffffff16815260200190815260200160002060008381526020019081526020016000206000905550505050565b60006001600880549050612b079190613ccf565b9050600060096000848152602001908152602001600020549050600060088381548110612b5d577f4e487b7100000000000000000000000000000000000000000000000000000000600052603260045260246000fd5b906000526020600020015490508060088381548110612ba5577f4e487b7100000000000000000000000000000000000000000000000000000000600052603260045260246000fd5b906000526020600020018190555081600960008381526020019081526020016000208190555060096000858152602001908152602001600020600090556008805480612c1a577f4e487b7100000000000000000000000000000000000000000000000000000000600052603160045260246000fd5b6001900381819060005260206000200160009055905550505050565b6000612c41836114e6565b905081600660008573ffffffffffffffffffffffffffffffffffffffff1673ffffffffffffffffffffffffffffffffffffffff168152602001908152602001600020600083815260200190815260200160002081905550806007600084815260200190815260200160002081905550505050565b600073ffffffffffffffffffffffffffffffffffffffff168273ffffffffffffffffffffffffffffffffffffffff161415612d25576040517f08c379a0000000000000000000000000000000000000000000000000000000008152600401612d1c906139d0565b60405180910390fd5b612d2e81611c72565b15612d6e576040517f08c379a0000000000000000000000000000000000000000000000000000000008152600401612d65906138f0565b60405180910390fd5b612d7a60008383612632565b6001600360008473ffffffffffffffffffffffffffffffffffffffff1673ffffffffffffffffffffffffffffffffffffffff1681526020019081526020016000206000828254612dca9190613bee565b92505081905550816002600083815260200190815260200160002060006101000a81548173ffffffffffffffffffffffffffffffffffffffff021916908373ffffffffffffffffffffffffffffffffffffffff160217905550808273ffffffffffffffffffffffffffffffffffffffff16600073ffffffffffffffffffffffffffffffffffffffff167fddf252ad1be2c89b69c2b068fc378daa952ba7f163c4a11628f55a4df523b3ef60405160405180910390a4612e8b60008383612746565b5050565b828054612e9b90613db9565b90600052602060002090601f016020900481019282612ebd5760008555612f04565b82601f10612ed657805160ff1916838001178555612f04565b82800160010185558215612f04579182015b82811115612f03578251825591602001919060010190612ee8565b5b509050612f119190612f15565b5090565b5b80821115612f2e576000816000905550600101612f16565b5090565b6000612f45612f4084613af0565b613acb565b905082815260208101848484011115612f5d57600080fd5b612f68848285613d77565b509392505050565b6000612f83612f7e84613b21565b613acb565b905082815260208101848484011115612f9b57600080fd5b612fa6848285613d77565b509392505050565b600081359050612fbd8161445c565b92915050565b600081359050612fd281614473565b92915050565b600081359050612fe78161448a565b92915050565b600081519050612ffc8161448a565b92915050565b600082601f83011261301357600080fd5b8135613023848260208601612f32565b91505092915050565b600082601f83011261303d57600080fd5b813561304d848260208601612f70565b91505092915050565b600081359050613065816144a1565b92915050565b60006020828403121561307d57600080fd5b600061308b84828501612fae565b91505092915050565b600080604083850312156130a757600080fd5b60006130b585828601612fae565b92505060206130c685828601612fae565b9150509250929050565b6000806000606084860312156130e557600080fd5b60006130f386828701612fae565b935050602061310486828701612fae565b925050604061311586828701613056565b9150509250925092565b6000806000806080858703121561313557600080fd5b600061314387828801612fae565b945050602061315487828801612fae565b935050604061316587828801613056565b925050606085013567ffffffffffffffff81111561318257600080fd5b61318e87828801613002565b91505092959194509250565b600080604083850312156131ad57600080fd5b60006131bb85828601612fae565b92505060206131cc85828601612fc3565b9150509250929050565b600080604083850312156131e957600080fd5b60006131f785828601612fae565b925050602061320885828601613056565b9150509250929050565b60006020828403121561322457600080fd5b600061323284828501612fc3565b91505092915050565b60006020828403121561324d57600080fd5b600061325b84828501612fd8565b91505092915050565b60006020828403121561327657600080fd5b600061328484828501612fed565b91505092915050565b60006020828403121561329f57600080fd5b600082013567ffffffffffffffff8111156132b957600080fd5b6132c58482850161302c565b91505092915050565b6000602082840312156132e057600080fd5b60006132ee84828501613056565b91505092915050565b60006133038383613746565b60208301905092915050565b61331881613d03565b82525050565b600061332982613b77565b6133338185613ba5565b935061333e83613b52565b8060005b8381101561336f57815161335688826132f7565b975061336183613b98565b925050600181019050613342565b5085935050505092915050565b61338581613d15565b82525050565b600061339682613b82565b6133a08185613bb6565b93506133b0818560208601613d86565b6133b981613f52565b840191505092915050565b60006133cf82613b8d565b6133d98185613bd2565b93506133e9818560208601613d86565b6133f281613f52565b840191505092915050565b600061340882613b8d565b6134128185613be3565b9350613422818560208601613d86565b80840191505092915050565b6000815461343b81613db9565b6134458186613be3565b945060018216600081146134605760018114613471576134a4565b60ff198316865281860193506134a4565b61347a85613b62565b60005b8381101561349c5781548189015260018201915060208101905061347d565b838801955050505b50505092915050565b60006134ba602b83613bd2565b91506134c582613f63565b604082019050919050565b60006134dd603283613bd2565b91506134e882613fb2565b604082019050919050565b6000613500602683613bd2565b915061350b82614001565b604082019050919050565b6000613523602583613bd2565b915061352e82614050565b604082019050919050565b6000613546601c83613bd2565b91506135518261409f565b602082019050919050565b6000613569602483613bd2565b9150613574826140c8565b604082019050919050565b600061358c601983613bd2565b915061359782614117565b602082019050919050565b60006135af602c83613bd2565b91506135ba82614140565b604082019050919050565b60006135d2603883613bd2565b91506135dd8261418f565b604082019050919050565b60006135f5602a83613bd2565b9150613600826141de565b604082019050919050565b6000613618602983613bd2565b91506136238261422d565b604082019050919050565b600061363b602083613bd2565b91506136468261427c565b602082019050919050565b600061365e602c83613bd2565b9150613669826142a5565b604082019050919050565b6000613681602083613bd2565b915061368c826142f4565b602082019050919050565b60006136a4602f83613bd2565b91506136af8261431d565b604082019050919050565b60006136c7602183613bd2565b91506136d28261436c565b604082019050919050565b60006136ea600083613bc7565b91506136f5826143bb565b600082019050919050565b600061370d603183613bd2565b9150613718826143be565b604082019050919050565b6000613730602c83613bd2565b915061373b8261440d565b604082019050919050565b61374f81613d6d565b82525050565b61375e81613d6d565b82525050565b600061377082866133fd565b915061377c82856133fd565b9150613788828461342e565b9150819050949350505050565b60006137a0826136dd565b9150819050919050565b60006020820190506137bf600083018461330f565b92915050565b60006080820190506137da600083018761330f565b6137e7602083018661330f565b6137f46040830185613755565b8181036060830152613806818461338b565b905095945050505050565b6000602082019050818103600083015261382b818461331e565b905092915050565b6000602082019050613848600083018461337c565b92915050565b6000602082019050818103600083015261386881846133c4565b905092915050565b60006020820190508181036000830152613889816134ad565b9050919050565b600060208201905081810360008301526138a9816134d0565b9050919050565b600060208201905081810360008301526138c9816134f3565b9050919050565b600060208201905081810360008301526138e981613516565b9050919050565b6000602082019050818103600083015261390981613539565b9050919050565b600060208201905081810360008301526139298161355c565b9050919050565b600060208201905081810360008301526139498161357f565b9050919050565b60006020820190508181036000830152613969816135a2565b9050919050565b60006020820190508181036000830152613989816135c5565b9050919050565b600060208201905081810360008301526139a9816135e8565b9050919050565b600060208201905081810360008301526139c98161360b565b9050919050565b600060208201905081810360008301526139e98161362e565b9050919050565b60006020820190508181036000830152613a0981613651565b9050919050565b60006020820190508181036000830152613a2981613674565b9050919050565b60006020820190508181036000830152613a4981613697565b9050919050565b60006020820190508181036000830152613a69816136ba565b9050919050565b60006020820190508181036000830152613a8981613700565b9050919050565b60006020820190508181036000830152613aa981613723565b9050919050565b6000602082019050613ac56000830184613755565b92915050565b6000613ad5613ae6565b9050613ae18282613deb565b919050565b6000604051905090565b600067ffffffffffffffff821115613b0b57613b0a613f23565b5b613b1482613f52565b9050602081019050919050565b600067ffffffffffffffff821115613b3c57613b3b613f23565b5b613b4582613f52565b9050602081019050919050565b6000819050602082019050919050565b60008190508160005260206000209050919050565b600081519050919050565b600081519050919050565b600081519050919050565b6000602082019050919050565b600082825260208201905092915050565b600082825260208201905092915050565b600081905092915050565b600082825260208201905092915050565b600081905092915050565b6000613bf982613d6d565b9150613c0483613d6d565b9250827fffffffffffffffffffffffffffffffffffffffffffffffffffffffffffffffff03821115613c3957613c38613e96565b5b828201905092915050565b6000613c4f82613d6d565b9150613c5a83613d6d565b925082613c6a57613c69613ec5565b5b828204905092915050565b6000613c8082613d6d565b9150613c8b83613d6d565b9250817fffffffffffffffffffffffffffffffffffffffffffffffffffffffffffffffff0483118215151615613cc457613cc3613e96565b5b828202905092915050565b6000613cda82613d6d565b9150613ce583613d6d565b925082821015613cf857613cf7613e96565b5b828203905092915050565b6000613d0e82613d4d565b9050919050565b60008115159050919050565b60007fffffffff0000000000000000000000000000000000000000000000000000000082169050919050565b600073ffffffffffffffffffffffffffffffffffffffff82169050919050565b6000819050919050565b82818337600083830152505050565b60005b83811015613da4578082015181840152602081019050613d89565b83811115613db3576000848401525b50505050565b60006002820490506001821680613dd157607f821691505b60208210811415613de557613de4613ef4565b5b50919050565b613df482613f52565b810181811067ffffffffffffffff82111715613e1357613e12613f23565b5b80604052505050565b6000613e2782613d6d565b91507fffffffffffffffffffffffffffffffffffffffffffffffffffffffffffffffff821415613e5a57613e59613e96565b5b600182019050919050565b6000613e7082613d6d565b9150613e7b83613d6d565b925082613e8b57613e8a613ec5565b5b828206905092915050565b7f4e487b7100000000000000000000000000000000000000000000000000000000600052601160045260246000fd5b7f4e487b7100000000000000000000000000000000000000000000000000000000600052601260045260246000fd5b7f4e487b7100000000000000000000000000000000000000000000000000000000600052602260045260246000fd5b7f4e487b7100000000000000000000000000000000000000000000000000000000600052604160045260246000fd5b6000601f19601f8301169050919050565b7f455243373231456e756d657261626c653a206f776e657220696e646578206f7560008201527f74206f6620626f756e6473000000000000000000000000000000000000000000602082015250565b7f4552433732313a207472616e7366657220746f206e6f6e20455243373231526560008201527f63656976657220696d706c656d656e7465720000000000000000000000000000602082015250565b7f4f776e61626c653a206e6577206f776e657220697320746865207a65726f206160008201527f6464726573730000000000000000000000000000000000000000000000000000602082015250565b7f4552433732313a207472616e736665722066726f6d20696e636f72726563742060008201527f6f776e6572000000000000000000000000000000000000000000000000000000602082015250565b7f4552433732313a20746f6b656e20616c7265616479206d696e74656400000000600082015250565b7f4552433732313a207472616e7366657220746f20746865207a65726f2061646460008201527f7265737300000000000000000000000000000000000000000000000000000000602082015250565b7f4552433732313a20617070726f766520746f2063616c6c657200000000000000600082015250565b7f4552433732313a206f70657261746f7220717565727920666f72206e6f6e657860008201527f697374656e7420746f6b656e0000000000000000000000000000000000000000602082015250565b7f4552433732313a20617070726f76652063616c6c6572206973206e6f74206f7760008201527f6e6572206e6f7220617070726f76656420666f7220616c6c0000000000000000602082015250565b7f4552433732313a2062616c616e636520717565727920666f7220746865207a6560008201527f726f206164647265737300000000000000000000000000000000000000000000602082015250565b7f4552433732313a206f776e657220717565727920666f72206e6f6e657869737460008201527f656e7420746f6b656e0000000000000000000000000000000000000000000000602082015250565b7f4552433732313a206d696e7420746f20746865207a65726f2061646472657373600082015250565b7f4552433732313a20617070726f76656420717565727920666f72206e6f6e657860008201527f697374656e7420746f6b656e0000000000000000000000000000000000000000602082015250565b7f4f776e61626c653a2063616c6c6572206973206e6f7420746865206f776e6572600082015250565b7f4552433732314d657461646174613a2055524920717565727920666f72206e6f60008201527f6e6578697374656e7420746f6b656e0000000000000000000000000000000000602082015250565b7f4552433732313a20617070726f76616c20746f2063757272656e74206f776e6560008201527f7200000000000000000000000000000000000000000000000000000000000000602082015250565b50565b7f4552433732313a207472616e736665722063616c6c6572206973206e6f74206f60008201527f776e6572206e6f7220617070726f766564000000000000000000000000000000602082015250565b7f455243373231456e756d657261626c653a20676c6f62616c20696e646578206f60008201527f7574206f6620626f756e64730000000000000000000000000000000000000000602082015250565b61446581613d03565b811461447057600080fd5b50565b61447c81613d15565b811461448757600080fd5b50565b61449381613d21565b811461449e57600080fd5b50565b6144aa81613d6d565b81146144b557600080fd5b5056fea2646970667358221220f39d4c53ac3b0930bd2b0106f35d8e7b5ed71f0f4466d8899edf643582a5d6ea64736f6c63430008040033",
  "linkReferences": {},
  "deployedLinkReferences": {}
}